{"abi":[{"type":"constructor","inputs":[{"name":"_usdc","type":"address","internalType":"address"}],"stateMutability":"nonpayable"},{"type":"function","name":"agentCount","inputs":[],"outputs":[{"name":"","type":"uint256","internalType":"uint256"}],"stateMutability":"view"},{"type":"function","name":"agents","inputs":[{"name":"","type":"uint256","internalType":"uint256"}],"outputs":[{"name":"operator","type":"address","internalType":"address"},{"name":"owsWallet","type":"address","internalType":"address"},{"name":"vault","type":"address","internalType":"address"},{"name":"name","type":"string","internalType":"string"},{"name":"endpoint","type":"string","internalType":"string"},{"name":"description","type":"string","internalType":"string"},{"name":"revenueTypes","type":"uint8","internalType":"uint8"},{"name":"registeredAt","type":"uint256","internalType":"uint256"}],"stateMutability":"view"},{"type":"function","name":"getAgent","inputs":[{"name":"agentId","type":"uint256","internalType":"uint256"}],"outputs":[{"name":"","type":"tuple","internalType":"struct AgentRegistry.AgentInfo","components":[{"name":"operator","type":"address","internalType":"address"},{"name":"owsWallet","type":"address","internalType":"address"},{"name":"vault","type":"address","internalType":"address"},{"name":"name","type":"string","internalType":"string"},{"name":"endpoint","type":"string","internalType":"string"},{"name":"description","type":"string","internalType":"string"},{"name":"revenueTypes","type":"uint8","internalType":"uint8"},{"name":"registeredAt","type":"uint256","internalType":"uint256"}]}],"stateMutability":"view"},{"type":"function","name":"getAgentByWallet","inputs":[{"name":"owsWallet","type":"address","internalType":"address"}],"outputs":[{"name":"","type":"tuple","internalType":"struct AgentRegistry.AgentInfo","components":[{"name":"operator","type":"address","internalType":"address"},{"name":"owsWallet","type":"address","internalType":"address"},{"name":"vault","type":"address","internalType":"address"},{"name":"name","type":"string","internalType":"string"},{"name":"endpoint","type":"string","internalType":"string"},{"name":"description","type":"string","internalType":"string"},{"name":"revenueTypes","type":"uint8","internalType":"uint8"},{"name":"registeredAt","type":"uint256","internalType":"uint256"}]}],"stateMutability":"view"},{"type":"function","name":"listAgents","inputs":[{"name":"offset","type":"uint256","internalType":"uint256"},{"name":"limit","type":"uint256","internalType":"uint256"}],"outputs":[{"name":"result","type":"tuple[]","internalType":"struct AgentRegistry.AgentInfo[]","components":[{"name":"operator","type":"address","internalType":"address"},{"name":"owsWallet","type":"address","internalType":"address"},{"name":"vault","type":"address","internalType":"address"},{"name":"name","type":"string","internalType":"string"},{"name":"endpoint","type":"string","internalType":"string"},{"name":"description","type":"string","internalType":"string"},{"name":"revenueTypes","type":"uint8","internalType":"uint8"},{"name":"registeredAt","type":"uint256","internalType":"uint256"}]}],"stateMutability":"view"},{"type":"function","name":"owner","inputs":[],"outputs":[{"name":"","type":"address","internalType":"address"}],"stateMutability":"view"},{"type":"function","name":"registerAgent","inputs":[{"name":"owsWallet","type":"address","internalType":"address"},{"name":"name","type":"string","internalType":"string"},{"name":"endpoint","type":"string","internalType":"string"},{"name":"description","type":"string","internalType":"string"},{"name":"maturity","type":"uint256","internalType":"uint256"},{"name":"fundingGoal","type":"uint256","internalType":"uint256"},{"name":"sweeper","type":"address","internalType":"address"},{"name":"revenueTypes","type":"uint8","internalType":"uint8"}],"outputs":[{"name":"agentId","type":"uint256","internalType":"uint256"},{"name":"vault","type":"address","internalType":"address"}],"stateMutability":"nonpayable"},{"type":"function","name":"setAuthorizedSource","inputs":[{"name":"agentId","type":"uint256","internalType":"uint256"},{"name":"source","type":"address","internalType":"address"},{"name":"authorized","type":"bool","internalType":"bool"}],"outputs":[],"stateMutability":"nonpayable"},{"type":"function","name":"setSweeper","inputs":[{"name":"agentId","type":"uint256","internalType":"uint256"},{"name":"sweeper","type":"address","internalType":"address"}],"outputs":[],"stateMutability":"nonpayable"},{"type":"function","name":"updateEndpoint","inputs":[{"name":"agentId","type":"uint256","internalType":"uint256"},{"name":"endpoint","type":"string","internalType":"string"}],"outputs":[],"stateMutability":"nonpayable"},{"type":"function","name":"usdc","inputs":[],"outputs":[{"name":"","type":"address","internalType":"address"}],"stateMutability":"view"},{"type":"function","name":"walletToAgent","inputs":[{"name":"","type":"address","internalType":"address"}],"outputs":[{"name":"","type":"uint256","internalType":"uint256"}],"stateMutability":"view"},{"type":"event","name":"AgentRegistered","inputs":[{"name":"agentId","type":"uint256","indexed":true,"internalType":"uint256"},{"name":"operator","type":"address","indexed":true,"internalType":"address"},{"name":"vault","type":"address","indexed":true,"internalType":"address"},{"name":"owsWallet","type":"address","indexed":false,"internalType":"address"},{"name":"name","type":"string","indexed":false,"internalType":"string"}],"anonymous":false},{"type":"event","name":"EndpointUpdated","inputs":[{"name":"agentId","type":"uint256","indexed":true,"internalType":"uint256"},{"name":"endpoint","type":"string","indexed":false,"internalType":"string"}],"anonymous":false},{"type":"event","name":"SweeperUpdated","inputs":[{"name":"agentId","type":"uint256","indexed":true,"internalType":"uint256"},{"name":"sweeper","type":"address","indexed":false,"internalType":"address"}],"anonymous":false},{"type":"error","name":"InvalidFundingGoal","inputs":[]},{"type":"error","name":"InvalidMaturity","inputs":[]},{"type":"error","name":"NotOperator","inputs":[]},{"type":"error","name":"NotOwner","inputs":[]},{"type":"error","name":"ZeroAddress","inputs":[]}],"bytecode":{"object":"0x60a034607e57601f61214338819003918201601f19168301916001600160401b03831184841017608257808492602094604052833981010312607e57516001600160a01b0381168103607e576080525f80546001600160a01b031916331790556040516120ac9081610097823960805181818161040b015261079d0152f35b5f80fd5b634e487b7160e01b5f52604160045260245ffdfe6080806040526004361015610012575f80fd5b5f905f3560e01c9081630519229a14610698575080630f384332146105d15780630f70ab53146104f45780631047d2091461046e5780632de5aaf71461043a5780633e413bee146103f5578063513856c81461032a57806354fec7721461018857806385f8dd8d146101225780638da5cb5b146100fb578063b7dc1284146100dd5763e16abb17146100a2575f80fd5b346100da5760203660031901126100da576020906040906001600160a01b036100c9610ca6565b168152600383522054604051908152f35b80fd5b50346100da57806003193601126100da576020600254604051908152f35b50346100da57806003193601126100da57546040516001600160a01b039091168152602090f35b50346100da5760203660031901126100da57610170604061018492610145610ca6565b61014d610f9f565b506001600160a01b03168152600360209081528282205482526001905220611005565b604051918291602083526020830190610d23565b0390f35b50346100da5760403660031901126100da57600435906024356001600160401b038111610326576101bd903690600401610cd2565b8383526001602052604083208054919492916001600160a01b0316330361031757600401936001600160401b03811161030357610204816101fe8754610db2565b87610f0c565b8394601f821160011461027f57610254828087987f6f15a2ac3d3f0fda377d29e40db81b39b8d9fd8606e205401974b45fc86e3137979891610274575b508160011b915f199060031b1c19161790565b90555b61026e604051928392602084526020840191610f5b565b0390a280f35b90508501355f610241565b8085526020852095601f198316865b8181106102eb575090837f6f15a2ac3d3f0fda377d29e40db81b39b8d9fd8606e205401974b45fc86e313796979892106102d2575b5050600182811b019055610257565b8401355f19600385901b60f8161c191690555f806102c3565b8583013589556001909801976020928301920161028e565b634e487b7160e01b84526041600452602484fd5b631f0853c160e21b8452600484fd5b5080fd5b50346100da5760203660031901126100da57600435815260016020819052604090912080549181015460028201546001600160a01b039182169382169291166103e661037860038401610e27565b6103d861038760048601610e27565b6103ca61039660058801610e27565b93600760ff60068a015416980154966040519a8b9a8b5260208b015260408a015261010060608a0152610100890190610cff565b908782036080890152610cff565b9085820360a0870152610cff565b9160c084015260e08301520390f35b50346100da57806003193601126100da576040517f00000000000000000000000000000000000000000000000000000000000000006001600160a01b03168152602090f35b50346100da5760203660031901126100da5761017060406101849261045d610f9f565b506004358152600160205220611005565b50346100da5760403660031901126100da5761048e602435600435611088565b906040519182916020830160208452825180915260408401602060408360051b870101940192905b8282106104c557505050500390f35b919360019193955060206104e48192603f198a82030186528851610d23565b96019201920185949391926104b6565b50346100da5760403660031901126100da57600435610511610cbc565b81835260016020526040832080546001600160a01b0316330361031757600201546001600160a01b0316908390823b15610326576040516311ea615d60e11b81526001600160a01b03909116600482018190529282908290602490829084905af180156105c6576105ad575b505060207f11bb5800e587d42f0ec5eed8096ee6b86a9c84d2d8e36c081c295bd6dad3200791604051908152a280f35b816105b791610e06565b6105c257825f61057d565b8280fd5b6040513d84823e3d90fd5b50346100da5760603660031901126100da576105eb610cbc565b9060443580151580910361032657600435825260016020526040822080549093906001600160a01b0316330361068957600290930154919283926001600160a01b031691823b1561068457604051633c284e9360e21b81526001600160a01b03909216600483015260248201529082908290604490829084905af180156105c6576106735750f35b8161067d91610e06565b6100da5780f35b505050fd5b631f0853c160e21b8352600483fd5b905034610c4d57610100366003190112610c4d576106b4610ca6565b906024356001600160401b038111610c4d576106d4903690600401610cd2565b906044356001600160401b038111610c4d576106f4903690600401610cd2565b94906064356001600160401b038111610c4d57610715903690600401610cd2565b60a4359760c4356001600160a01b038116986084359692949293918a9003610c4d5760e4359360ff8516809503610c4d576001600160a01b0316968715610c975742811115610c88578b15610c79576002545f198114610c65576001019b8c600255610f1190818401908482106001600160401b03831117610c515760c093859361116685397f00000000000000000000000000000000000000000000000000000000000000006001600160a01b03168352336020840152306040840152606083018c9052608083015260a08201520301905ff0938415610c42576001600160a01b03909416988b949080610be6575b506040519561081387610dea565b338752602087019388855260408801918c835236610832908d8d610ec7565b9360608a01948552369061084592610ec7565b9360808901948552369061085892610ec7565b60a0880190815260c088019586524260e08901908152968d90526001602081905260408f20985189546001600160a01b03199081166001600160a01b03928316178b559651918a01805488169282169290921790915591516002890180549096169216919091179093555180516003870191906001600160401b038111610bd2576108ed816108e78554610db2565b85610f0c565b60208e6001601f841114610b70579061091a9383610a44575b50508160011b915f199060031b1c19161790565b90555b60048501905180516001600160401b038111610b5c57610941816108e78554610db2565b60208d601f8311600114610afa579061096d9383610a445750508160011b915f199060031b1c19161790565b90555b51805160058501916001600160401b038211610ae657610994826108e78554610db2565b602090601f8311600114610a4f579560078b9a99968d999660409f9496604096806109f7918e9a7fcd117928f51323dc241380cfc2e4dff28cc597af1872c765d3522d92bb4ee6a99e8a92610a445750508160011b915f199060031b1c19161790565b90555b60ff6006850191511660ff198254161790555191015583815260036020522055610a35895192839283528a602084015233968b840191610f5b565b0390a482519182526020820152f35b015190505f80610906565b838d52818d209190601f1984168e5b818110610ace5750968d999660409f94966040968f9e9d9a908d997fcd117928f51323dc241380cfc2e4dff28cc597af1872c765d3522d92bb4ee6a99d976007978360019510610ab6575b505050811b0190556109fa565b01515f1960f88460031b161c191690555f8080610aa9565b92936020600181928786015181550195019301610a5e565b634e487b7160e01b8c52604160045260248cfd5b9192601f198416858452828420935b818110610b445750908460019594939210610b2c575b505050811b019055610970565b01515f1960f88460031b161c191690555f8080610b1f565b92936020600181928786015181550195019301610b09565b634e487b7160e01b8d52604160045260248dfd5b9192601f198416858452828420935b818110610bba5750908460019594939210610ba2575b505050811b01905561091d565b01515f1960f88460031b161c191690555f8080610b95565b92936020600181928786015181550195019301610b7f565b634e487b7160e01b8e52604160045260248efd5b909192939450893b15610c4d576040516311ea615d60e11b815260048101919091525f81602481838e5af18015610c4257610c27575b908b94939291610805565b610c37919493929b505f90610e06565b5f999091925f610c1c565b6040513d5f823e3d90fd5b5f80fd5b634e487b7160e01b5f52604160045260245ffd5b634e487b7160e01b5f52601160045260245ffd5b632a98a85960e21b5f5260045ffd5b6318f4d05960e31b5f5260045ffd5b63d92e233d60e01b5f5260045ffd5b600435906001600160a01b0382168203610c4d57565b602435906001600160a01b0382168203610c4d57565b9181601f84011215610c4d578235916001600160401b038311610c4d5760208381860195010111610c4d57565b805180835260209291819084018484015e5f828201840152601f01601f1916010190565b9060018060a01b03825116815260018060a01b03602083015116602082015260018060a01b03604083015116604082015260e080610d9c610d8a610d7860608701516101006060880152610100870190610cff565b60808701518682036080880152610cff565b60a086015185820360a0870152610cff565b9360ff60c08201511660c0850152015191015290565b90600182811c92168015610de0575b6020831014610dcc57565b634e487b7160e01b5f52602260045260245ffd5b91607f1691610dc1565b61010081019081106001600160401b03821117610c5157604052565b90601f801991011681019081106001600160401b03821117610c5157604052565b9060405191825f825492610e3a84610db2565b8084529360018116908115610ea55750600114610e61575b50610e5f92500383610e06565b565b90505f9291925260205f20905f915b818310610e89575050906020610e5f928201015f610e52565b6020919350806001915483858901015201910190918492610e70565b905060209250610e5f94915060ff191682840152151560051b8201015f610e52565b9291926001600160401b038211610c515760405191610ef0601f8201601f191660200184610e06565b829481845281830111610c4d578281602093845f960137010152565b601f8211610f1957505050565b5f5260205f20906020601f840160051c83019310610f51575b601f0160051c01905b818110610f46575050565b5f8155600101610f3b565b9091508190610f32565b908060209392818452848401375f828201840152601f01601f1916010190565b91908203918211610c6557565b6001600160401b038111610c515760051b60200190565b60405190610fac82610dea565b5f60e08382815282602082015282604082015260608082015260606080820152606060a08201528260c08201520152565b8051821015610ff15760209160051b010190565b634e487b7160e01b5f52603260045260245ffd5b9060405161101281610dea565b82546001600160a01b039081168252600184015481166020830152600284015416604082015291829060e09060079061104d60038201610e27565b606085015261105e60048201610e27565b608085015261106f60058201610e27565b60a085015260ff60068201541660c08501520154910152565b9190600254908184101561115d57830190818411610c6557808211611155575b506110b38382610f7b565b906110bd82610f88565b916110cb6040519384610e06565b8083526110da601f1991610f88565b015f5b81811061113e5750508193805b8281106110f75750505050565b6001810190818111610c65576001915f528160205261113760405f206111266111208685610f7b565b91611005565b6111308289610fdd565b5286610fdd565b50016110ea565b602090611149610f9f565b828287010152016110dd565b90505f6110a8565b50606092505056fe6101403461013057601f610f1138819003918201601f19168301916001600160401b038311848410176101345780849260c0946040528339810103126101305761004881610148565b9061005560208201610148565b61006160408301610148565b61006d60608401610148565b9160a060808501519401519460018060a01b031660805260a05260c05260e0526101005261012052604051610db4908161015d82396080518181816103910152818161051c015281816107c901528181610a400152610b8a015260a0518181816107850152610995015260c0518181816101a7015281816106e5015261085b015260e0518161014f0152610100518181816102ba01528181610475015281816108e50152818161092601526109d50152610120518181816104ad015261072b0152f35b5f80fd5b634e487b7160e01b5f52604160045260245ffd5b51906001600160a01b03821682036101305756fe6080806040526004361015610012575f80fd5b5f3560e01c90816313b0ab2814610aeb5750806317727a0014610983578063200d2ed214610908578063204f83f9146108ce57806323d4c2ba1461084057806329b1f2de146108155780633a98ef39146107f85780633e413bee146107b4578063570ca735146107705780635c9920fc1461074e5780637a3a0e84146107145780637b103999146106d05780639189a59e146106a8578063964ebf421461066b5780639f4568ef1461062e578063b6b55f251461045f578063be040fb0146102a8578063bf2d9e0b1461028b578063ce7c2ac214610254578063dc4035c714610232578063f0a13a4c1461017e578063f5ff5c761461013a5763ff50abdc14610119575f80fd5b34610136575f366003190112610136576020600254604051908152f35b5f80fd5b34610136575f366003190112610136576040517f00000000000000000000000000000000000000000000000000000000000000006001600160a01b03168152602090f35b3461013657604036600319011261013657610197610c66565b60243590811515809203610136577f00000000000000000000000000000000000000000000000000000000000000006001600160a01b031633036102235760207f156964222630dfa2c9995108d1518962b131fb3525191a58194ce136ca4278079160018060a01b031692835f526005825260405f2060ff1981541660ff8316179055604051908152a2005b633217675b60e21b5f5260045ffd5b34610136575f36600319011261013657602060ff600654166040519015158152f35b34610136576020366003190112610136576001600160a01b03610275610c66565b165f525f602052602060405f2054604051908152f35b34610136575f366003190112610136576020600354604051908152f35b34610136575f366003190112610136577f0000000000000000000000000000000000000000000000000000000000000000421061045057335f52600760205260ff60405f20541661044157335f525f60205260405f2054801561043257335f52600760205260405f20600160ff198254161790556103546002549161034f61033b8261033660035487610cca565b610cf8565b916103496001548094610d0b565b94610cf8565b610d0b565b9061038c60206103648484610ceb565b60405163a9059cbb60e01b815233600482015260248101949094529291829081906044820190565b03815f7f00000000000000000000000000000000000000000000000000000000000000006001600160a01b03165af18015610427576103fa575b5060405191825260208201527ff3a670cd3af7d64b488926880889d08a8585a138ff455227af6737339a1ec26260403392a2005b61041b9060203d602011610420575b6104138183610c7c565b810190610cb2565b6103c6565b503d610409565b6040513d5f823e3d90fd5b63b317087b60e01b5f5260045ffd5b6306d3830f60e21b5f5260045ffd5b63e9bbe5e760e01b5f5260045ffd5b34610136576020366003190112610136576004357f000000000000000000000000000000000000000000000000000000000000000042101561061f5760ff60085416610610578015610601577f0000000000000000000000000000000000000000000000000000000000000000906104d960025483610ceb565b9081156105f257818111156105ea5750905b6040516323b872dd60e01b8152336004820152306024820152604481018390526020816064815f6001600160a01b037f0000000000000000000000000000000000000000000000000000000000000000165af18015610427576105cd575b50335f525f60205260405f20610560838254610cca565b905561056e82600154610cca565b60015561057d82600254610cca565b80600255146105bb575b6040519080825260208201527f73a19dd210f1a7f902193214c0ee91dd35ee5b4d920cba8d519eca65a7b488ca60403392a2005b600160ff196008541617600855610587565b6105e59060203d602011610420576104138183610c7c565b610549565b9050906104eb565b634fbf92cf60e01b5f5260045ffd5b631f2a200560e01b5f5260045ffd5b63fc5c1c4560e01b5f5260045ffd5b6346a72a3160e11b5f5260045ffd5b34610136576020366003190112610136576001600160a01b0361064f610c66565b165f526007602052602060ff60405f2054166040519015158152f35b34610136576020366003190112610136576001600160a01b0361068c610c66565b165f526005602052602060ff60405f2054166040519015158152f35b34610136575f366003190112610136576004546040516001600160a01b039091168152602090f35b34610136575f366003190112610136576040517f00000000000000000000000000000000000000000000000000000000000000006001600160a01b03168152602090f35b34610136575f3660031901126101365760206040517f00000000000000000000000000000000000000000000000000000000000000008152f35b34610136575f36600319011261013657602060ff600854166040519015158152f35b34610136575f366003190112610136576040517f00000000000000000000000000000000000000000000000000000000000000006001600160a01b03168152602090f35b34610136575f366003190112610136576040517f00000000000000000000000000000000000000000000000000000000000000006001600160a01b03168152602090f35b34610136575f366003190112610136576020600154604051908152f35b34610136576020366003190112610136576020610838610833610c66565b610d29565b604051908152f35b3461013657602036600319011261013657610859610c66565b7f00000000000000000000000000000000000000000000000000000000000000006001600160a01b0316330361022357600480546001600160a01b0319166001600160a01b039290921691821790557f4680981d96e08986909e3a3260d80fe97048cfee5c1ba436ccd8bc43f65eeae15f80a2005b34610136575f3660031901126101365760206040517f00000000000000000000000000000000000000000000000000000000000000008152f35b34610136575f3660031901126101365760a0600254600354600154907f0000000000000000000000000000000000000000000000000000000000000000918242101592835f1461097257505f915b6040519485526020850152604084015260608301526080820152f35b61097d904290610ceb565b91610956565b34610136575f366003190112610136577f00000000000000000000000000000000000000000000000000000000000000006001600160a01b0381169033829003610adc576006549060ff8216610acd577f0000000000000000000000000000000000000000000000000000000000000000421080610ac0575b61061f5760ff1990911660011760065560025460405163a9059cbb60e01b81526001600160a01b03909216600483015260248201819052602082806044810103815f7f00000000000000000000000000000000000000000000000000000000000000006001600160a01b03165af1908115610427577ffd282af50c2a0af33f26b6abcc27c8bae5fc57dc3f7ce9b71612b4cd6db59ca092602092610aa5575b50604051908152a2005b610abb90833d8511610420576104138183610c7c565b610a9b565b5060ff60085416156109fc565b63431ecacf60e11b5f5260045ffd5b631f0853c160e21b5f5260045ffd5b346101365760403660031901126101365760243560043567ffffffffffffffff821161013657366023830112156101365781600401359267ffffffffffffffff8411610136573660248585010111610136576004546001600160a01b031633141580610c4f575b610c40578115610601576323b872dd60e01b8152336004820152306024820152604481018290526020816064815f6001600160a01b037f0000000000000000000000000000000000000000000000000000000000000000165af18015610427577fe10c8f416e9058132cba9d39aa84448aaf3268ee5ea0cdaa28960d61bee779b3938592602492610c23575b50610beb84600354610cca565b600355604051938452604060208501528260408501520160608301375f606084830101526060813394601f80199101168101030190a2005b610c3b9060203d602011610420576104138183610c7c565b610bde565b630982ebb360e01b5f5260045ffd5b50335f52600560205260ff60405f20541615610b52565b600435906001600160a01b038216820361013657565b90601f8019910116810190811067ffffffffffffffff821117610c9e57604052565b634e487b7160e01b5f52604160045260245ffd5b90816020910312610136575180151581036101365790565b91908201809211610cd757565b634e487b7160e01b5f52601160045260245ffd5b91908203918211610cd757565b81810292918115918404141715610cd757565b8115610d15570490565b634e487b7160e01b5f52601260045260245ffd5b6001600160a01b03165f9081526020819052604090205480158015610d74575b610d6f57610d63610d6c9161033660025460035490610cca565b60015490610d0b565b90565b505f90565b5060015415610d4956fea2646970667358221220090778f445a5f9553a7ceb690528c8700e48b558d3584e855d65c8bba922335464736f6c634300081e0033a2646970667358221220e16fa5bb4e425f30023c979ef7faa6d303bc0a27c75e967baf8b63acf2a85c6264736f6c634300081e0033","linkReferences":{}},"methodIdentifiers":{"agentCount()":"b7dc1284","agents(uint256)":"513856c8","getAgent(uint256)":"2de5aaf7","getAgentByWallet(address)":"85f8dd8d","listAgents(uint256,uint256)":"1047d209","owner()":"8da5cb5b","registerAgent(address,string,string,string,uint256,uint256,address,uint8)":"0519229a","setAuthorizedSource(uint256,address,bool)":"0f384332","setSweeper(uint256,address)":"0f70ab53","updateEndpoint(uint256,string)":"54fec772","usdc()":"3e413bee","walletToAgent(address)":"e16abb17"},"id":20}