{"abi":[{"type":"constructor","inputs":[{"name":"_usdc","type":"address","internalType":"address"}],"stateMutability":"nonpayable"},{"type":"function","name":"agentCount","inputs":[],"outputs":[{"name":"","type":"uint256","internalType":"uint256"}],"stateMutability":"view"},{"type":"function","name":"agents","inputs":[{"name":"","type":"uint256","internalType":"uint256"}],"outputs":[{"name":"operator","type":"address","internalType":"address"},{"name":"owsWallet","type":"address","internalType":"address"},{"name":"vault","type":"address","internalType":"address"},{"name":"name","type":"string","internalType":"string"},{"name":"endpoint","type":"string","internalType":"string"},{"name":"description","type":"string","internalType":"string"},{"name":"revenueTypes","type":"uint8","internalType":"uint8"},{"name":"registeredAt","type":"uint256","internalType":"uint256"},{"name":"bondAmount","type":"uint256","internalType":"uint256"}],"stateMutability":"view"},{"type":"function","name":"getAgent","inputs":[{"name":"agentId","type":"uint256","internalType":"uint256"}],"outputs":[{"name":"","type":"tuple","internalType":"struct AgentRegistry.AgentInfo","components":[{"name":"operator","type":"address","internalType":"address"},{"name":"owsWallet","type":"address","internalType":"address"},{"name":"vault","type":"address","internalType":"address"},{"name":"name","type":"string","internalType":"string"},{"name":"endpoint","type":"string","internalType":"string"},{"name":"description","type":"string","internalType":"string"},{"name":"revenueTypes","type":"uint8","internalType":"uint8"},{"name":"registeredAt","type":"uint256","internalType":"uint256"},{"name":"bondAmount","type":"uint256","internalType":"uint256"}]}],"stateMutability":"view"},{"type":"function","name":"getAgentByWallet","inputs":[{"name":"owsWallet","type":"address","internalType":"address"}],"outputs":[{"name":"","type":"tuple","internalType":"struct AgentRegistry.AgentInfo","components":[{"name":"operator","type":"address","internalType":"address"},{"name":"owsWallet","type":"address","internalType":"address"},{"name":"vault","type":"address","internalType":"address"},{"name":"name","type":"string","internalType":"string"},{"name":"endpoint","type":"string","internalType":"string"},{"name":"description","type":"string","internalType":"string"},{"name":"revenueTypes","type":"uint8","internalType":"uint8"},{"name":"registeredAt","type":"uint256","internalType":"uint256"},{"name":"bondAmount","type":"uint256","internalType":"uint256"}]}],"stateMutability":"view"},{"type":"function","name":"listAgents","inputs":[{"name":"offset","type":"uint256","internalType":"uint256"},{"name":"limit","type":"uint256","internalType":"uint256"}],"outputs":[{"name":"result","type":"tuple[]","internalType":"struct AgentRegistry.AgentInfo[]","components":[{"name":"operator","type":"address","internalType":"address"},{"name":"owsWallet","type":"address","internalType":"address"},{"name":"vault","type":"address","internalType":"address"},{"name":"name","type":"string","internalType":"string"},{"name":"endpoint","type":"string","internalType":"string"},{"name":"description","type":"string","internalType":"string"},{"name":"revenueTypes","type":"uint8","internalType":"uint8"},{"name":"registeredAt","type":"uint256","internalType":"uint256"},{"name":"bondAmount","type":"uint256","internalType":"uint256"}]}],"stateMutability":"view"},{"type":"function","name":"owner","inputs":[],"outputs":[{"name":"","type":"address","internalType":"address"}],"stateMutability":"view"},{"type":"function","name":"postBond","inputs":[{"name":"agentId","type":"uint256","internalType":"uint256"},{"name":"amount","type":"uint256","internalType":"uint256"}],"outputs":[],"stateMutability":"nonpayable"},{"type":"function","name":"registerAgent","inputs":[{"name":"owsWallet","type":"address","internalType":"address"},{"name":"name","type":"string","internalType":"string"},{"name":"endpoint","type":"string","internalType":"string"},{"name":"description","type":"string","internalType":"string"},{"name":"maturity","type":"uint256","internalType":"uint256"},{"name":"fundingGoal","type":"uint256","internalType":"uint256"},{"name":"revenueTypes","type":"uint8","internalType":"uint8"}],"outputs":[{"name":"agentId","type":"uint256","internalType":"uint256"},{"name":"vault","type":"address","internalType":"address"}],"stateMutability":"nonpayable"},{"type":"function","name":"updateEndpoint","inputs":[{"name":"agentId","type":"uint256","internalType":"uint256"},{"name":"endpoint","type":"string","internalType":"string"}],"outputs":[],"stateMutability":"nonpayable"},{"type":"function","name":"usdc","inputs":[],"outputs":[{"name":"","type":"address","internalType":"address"}],"stateMutability":"view"},{"type":"function","name":"walletToAgent","inputs":[{"name":"","type":"address","internalType":"address"}],"outputs":[{"name":"","type":"uint256","internalType":"uint256"}],"stateMutability":"view"},{"type":"function","name":"withdrawBond","inputs":[{"name":"agentId","type":"uint256","internalType":"uint256"}],"outputs":[],"stateMutability":"nonpayable"},{"type":"event","name":"AgentRegistered","inputs":[{"name":"agentId","type":"uint256","indexed":true,"internalType":"uint256"},{"name":"operator","type":"address","indexed":true,"internalType":"address"},{"name":"vault","type":"address","indexed":true,"internalType":"address"},{"name":"owsWallet","type":"address","indexed":false,"internalType":"address"},{"name":"name","type":"string","indexed":false,"internalType":"string"}],"anonymous":false},{"type":"event","name":"BondPosted","inputs":[{"name":"agentId","type":"uint256","indexed":true,"internalType":"uint256"},{"name":"operator","type":"address","indexed":true,"internalType":"address"},{"name":"amount","type":"uint256","indexed":false,"internalType":"uint256"}],"anonymous":false},{"type":"event","name":"BondWithdrawn","inputs":[{"name":"agentId","type":"uint256","indexed":true,"internalType":"uint256"},{"name":"operator","type":"address","indexed":true,"internalType":"address"},{"name":"amount","type":"uint256","indexed":false,"internalType":"uint256"}],"anonymous":false},{"type":"event","name":"EndpointUpdated","inputs":[{"name":"agentId","type":"uint256","indexed":true,"internalType":"uint256"},{"name":"endpoint","type":"string","indexed":false,"internalType":"string"}],"anonymous":false},{"type":"error","name":"InvalidFundingGoal","inputs":[]},{"type":"error","name":"InvalidMaturity","inputs":[]},{"type":"error","name":"NoBond","inputs":[]},{"type":"error","name":"NotOperator","inputs":[]},{"type":"error","name":"NotOwner","inputs":[]},{"type":"error","name":"VaultNotMatured","inputs":[]},{"type":"error","name":"ZeroAddress","inputs":[]},{"type":"error","name":"ZeroAmount","inputs":[]}],"bytecode":{"object":"0x60a03461009057601f61202438819003918201601f19168301916001600160401b038311848410176100945780849260209460405283398101031261009057516001600160a01b0381168103610090576080525f80546001600160a01b03191633179055604051611f7b90816100a982396080518181816101830152818161041301528181610aef0152610bb00152f35b5f80fd5b634e487b7160e01b5f52604160045260245ffdfe60806040526004361015610011575f80fd5b5f3560e01c80631047d20914610c52578063184fed0414610b515780632de5aaf714610b1e5780633e413bee14610ada578063513856c814610a0157806354fec7721461088b5780636008f90c1461031e57806385f8dd8d146102ba5780638da5cb5b14610293578063b7dc128414610276578063c3daab96146100d95763e16abb171461009d575f80fd5b346100d55760203660031901126100d5576001600160a01b036100be610ee5565b165f526003602052602060405f2054604051908152f35b5f80fd5b346100d55760203660031901126100d5576004355f81815260016020526040902080549091906001600160a01b0316330361026757600882018054928315610258576002015460405163204f83f960e01b815290602090829060049082906001600160a01b03165afa90811561020c575f91610226575b504210610217575f905560405163a9059cbb60e01b81523360048201528260248201526020816044815f60018060a01b037f0000000000000000000000000000000000000000000000000000000000000000165af1801561020c576101df575b506040519182527f379aa75a3ce753638a787f85ad8655bba22deba4d9746a0f907b88ab44d18df960203393a3005b6102009060203d602011610205575b6101f88183610df7565b810190611105565b6101b0565b503d6101ee565b6040513d5f823e3d90fd5b63e9bbe5e760e01b5f5260045ffd5b90506020813d602011610250575b8161024160209383610df7565b810103126100d5575184610150565b3d9150610234565b636fe0cfc760e11b5f5260045ffd5b631f0853c160e21b5f5260045ffd5b346100d5575f3660031901126100d5576020600254604051908152f35b346100d5575f3660031901126100d5575f546040516001600160a01b039091168152602090f35b346100d55760203660031901126100d5576102d3610ee5565b6102db610f2c565b5060018060a01b03165f52600360205260405f20545f52600160205261031a61030660405f20610f99565b604051918291602083526020830190610d09565b0390f35b346100d55760e03660031901126100d557610337610ee5565b6024356001600160401b0381116100d557610356903690600401610eb8565b916044356001600160401b0381116100d557610376903690600401610eb8565b9390926064356001600160401b0381116100d557610398903690600401610eb8565b6084959195359560a4359260c4359660ff88168098036100d5576001600160a01b031693841561087c574289111561086d57801561085e576002545f19811461084a57600101988960025560405191610d7490818401908482106001600160401b0383111761075a5760a09385936111d28539600180861b037f0000000000000000000000000000000000000000000000000000000000000000168352336020840152896040840152606083015260808201520301905ff0801561020c576040516001600160a01b039190911697909361047185610ddb565b338552602085019386855260408601938a855236610490908b8b61118c565b9c606088019d8e5236906104a39261118c565b916080870192835236906104b69261118c565b60a0860190815260c086019283524260e087019081525f61010088018181528d8252600160208190526040909220985189546001600160a01b03199081166001600160a01b03928316178b559851928a0180548a169382169390931790925595516002890180549098169116179095559a51805193949360038701916001600160401b03821161075a576105548261054e8554610da3565b8561111d565b602090601f83116001146107e75761058392915f91836107dc575b50508160011b915f199060031b1c19161790565b90555b51805160048601916001600160401b03821161075a576105aa8261054e8554610da3565b602090601f8311600114610779576105d892915f918361076e5750508160011b915f199060031b1c19161790565b90555b600584019951998a519a6001600160401b038c1161075a576106078c6106018454610da3565b8461111d565b602090601f8d116001146106c757937fcd117928f51323dc241380cfc2e4dff28cc597af1872c765d3522d92bb4ee6a9969360089361066660409f8f9b988f9e9d9a9682915f926106bc5750508160011b915f199060031b1c19161790565b90555b60ff6006860191511660ff1982541617905551600784015551910155805f52600360205283895f20556106ad895192839283528a602084015233968b84019161116c565b0390a482519182526020820152f35b015190505f8061056f565b90601f198d1691835f52815f20925f5b818110610742575093600160409f8f9b9894958f9e9d9a967fcd117928f51323dc241380cfc2e4dff28cc597af1872c765d3522d92bb4ee6a99c99958360089a1061072a575b505050811b019055610669565b01515f1960f88460031b161c191690555f808061071d565b929360206001819287860151815501950193016106d7565b634e487b7160e01b5f52604160045260245ffd5b015190508e8061056f565b90601f19831691845f52815f20925f5b8181106107c457509084600195949392106107ac575b505050811b0190556105db565b01515f1960f88460031b161c191690558d808061079f565b92936020600181928786015181550195019301610789565b015190508f8061056f565b90601f19831691845f52815f20925f5b818110610832575090846001959493921061081a575b505050811b019055610586565b01515f1960f88460031b161c191690558e808061080d565b929360206001819287860151815501950193016107f7565b634e487b7160e01b5f52601160045260245ffd5b632a98a85960e21b5f5260045ffd5b6318f4d05960e31b5f5260045ffd5b63d92e233d60e01b5f5260045ffd5b346100d55760403660031901126100d5576004356024356001600160401b0381116100d5576108be903690600401610eb8565b5f8381526001602052604090208054919392916001600160a01b0316330361026757600401926001600160401b03811161075a57610906816109008654610da3565b8661111d565b5f93601f821160011461097f5761095582807f6f15a2ac3d3f0fda377d29e40db81b39b8d9fd8606e205401974b45fc86e313796975f91610974575b508160011b915f199060031b1c19161790565b90555b61096f60405192839260208452602084019161116c565b0390a2005b905085013588610942565b601f19821694815f5260205f20905f5b8781106109e95750837f6f15a2ac3d3f0fda377d29e40db81b39b8d9fd8606e205401974b45fc86e31379697106109d0575b5050600182811b019055610958565b8401355f19600385901b60f8161c1916905585806109c1565b9091602060018192858901358155019301910161098f565b346100d55760203660031901126100d5576004355f90815260016020819052604090912080549181015460028201546001600160a01b03918216938216929116610a4d60038301610e18565b91610ac5610a5d60048301610e18565b610ab7610a6c60058501610e18565b91610aa960ff6006870154169760086007880154970154976040519b8c9b8c5260208c015260408b015261012060608b01526101208a0190610ce5565b9088820360808a0152610ce5565b9086820360a0880152610ce5565b9260c085015260e08401526101008301520390f35b346100d5575f3660031901126100d5576040517f00000000000000000000000000000000000000000000000000000000000000006001600160a01b03168152602090f35b346100d55760203660031901126100d557610b37610f2c565b506004355f52600160205261031a61030660405f20610f99565b346100d557610b5f36610ccf565b5f82815260016020526040902080549192916001600160a01b03163303610267578215610c43576040516323b872dd60e01b815233600482015230602482015260448101849052906020826064815f7f00000000000000000000000000000000000000000000000000000000000000006001600160a01b03165af191821561020c57600892610c26575b5001610bf6838254610efb565b90556040519182527fafde4e40131ac495ebb0e64c79232bb8e3829156d0fba713d597c0735865d87360203393a3005b610c3e9060203d602011610205576101f88183610df7565b610be9565b631f2a200560e01b5f5260045ffd5b346100d557610c69610c6336610ccf565b90611027565b6040518091602082016020835281518091526040830190602060408260051b8601019301915f905b828210610ca057505050500390f35b91936001919395506020610cbf8192603f198a82030186528851610d09565b9601920192018594939192610c91565b60409060031901126100d5576004359060243590565b805180835260209291819084018484015e5f828201840152601f01601f1916010190565b9060018060a01b03825116815260018060a01b03602083015116602082015260018060a01b03604083015116604082015261010080610d83610d71610d5f60608701516101206060880152610120870190610ce5565b60808701518682036080880152610ce5565b60a086015185820360a0870152610ce5565b9360ff60c08201511660c085015260e081015160e0850152015191015290565b90600182811c92168015610dd1575b6020831014610dbd57565b634e487b7160e01b5f52602260045260245ffd5b91607f1691610db2565b61012081019081106001600160401b0382111761075a57604052565b90601f801991011681019081106001600160401b0382111761075a57604052565b9060405191825f825492610e2b84610da3565b8084529360018116908115610e965750600114610e52575b50610e5092500383610df7565b565b90505f9291925260205f20905f915b818310610e7a575050906020610e50928201015f610e43565b6020919350806001915483858901015201910190918492610e61565b905060209250610e5094915060ff191682840152151560051b8201015f610e43565b9181601f840112156100d5578235916001600160401b0383116100d557602083818601950101116100d557565b600435906001600160a01b03821682036100d557565b9190820180921161084a57565b9190820391821161084a57565b6001600160401b03811161075a5760051b60200190565b60405190610f3982610ddb565b5f6101008382815282602082015282604082015260608082015260606080820152606060a08201528260c08201528260e08201520152565b8051821015610f855760209160051b010190565b634e487b7160e01b5f52603260045260245ffd5b90604051610fa681610ddb565b82546001600160a01b039081168252600184015481166020830152600284015416604082015291829061010090600890610fe260038201610e18565b6060850152610ff360048201610e18565b608085015261100460058201610e18565b60a085015260ff60068201541660c0850152600781015460e08501520154910152565b919060025490818410156110fd5761103f9084610efb565b908082116110f5575b506110538382610f08565b9061105d82610f15565b9161106b6040519384610df7565b80835261107a601f1991610f15565b015f5b8181106110de5750508193805b8281106110975750505050565b600181019081811161084a576001915f52816020526110d760405f206110c66110c08685610f08565b91610f99565b6110d08289610f71565b5286610f71565b500161108a565b6020906110e9610f2c565b8282870101520161107d565b90505f611048565b506060925050565b908160209103126100d5575180151581036100d55790565b601f821161112a57505050565b5f5260205f20906020601f840160051c83019310611162575b601f0160051c01905b818110611157575050565b5f815560010161114c565b9091508190611143565b908060209392818452848401375f828201840152601f01601f1916010190565b9291926001600160401b03821161075a57604051916111b5601f8201601f191660200184610df7565b8294818452818301116100d5578281602093845f96013701015256fe6101203461010857601f610d7438819003918201601f19168301916001600160401b0383118484101761010c5780849260a0946040528339810103126101085761004881610120565b9061005560208201610120565b61006160408301610120565b90608060608401519301519360018060a01b031660805260a05260c05260e05261010052604051610c3f908161013582396080518181816102850152818161034801528181610499015281816107da0152818161094a01528181610aa10152610b4f015260a0518161073d015260c05181610118015260e0518181816101b60152818161040e0152818161086c01526108cd01526101005181818161044601526106e30152f35b5f80fd5b634e487b7160e01b5f52604160045260245ffd5b51906001600160a01b03821682036101085756fe6080806040526004361015610012575f80fd5b5f3560e01c908163200d2ed21461088f57508063204f83f91461085557806329b1f2de146108265780633a98ef39146108095780633e413bee146107c55780634a4643f7146107895780635132124c1461076c578063570ca735146107285780635c9920fc146107065780637a3a0e84146106cc57806387269729146106aa5780639f4568ef14610669578063b6b55f25146103f8578063be040fb0146101a4578063ce7c2ac214610169578063f4a5b0cd14610147578063f5ff5c76146101035763ff50abdc146100e2575f80fd5b346100ff575f3660031901126100ff576020600354604051908152f35b5f80fd5b346100ff575f3660031901126100ff576040517f00000000000000000000000000000000000000000000000000000000000000006001600160a01b03168152602090f35b346100ff575f3660031901126100ff57602060ff600554166040519015158152f35b346100ff5760203660031901126100ff576004356001600160a01b038116908190036100ff575f525f602052602060405f2054604051908152f35b346100ff575f3660031901126100ff577f000000000000000000000000000000000000000000000000000000000000000042106103e957335f52600660205260ff60405f2054166103da57335f525f60205260405f205480156103cb5760055460ff81161561032d575b5061023561023e91335f52600660205260405f20600160ff19825416179055600454610a14565b60025490610a27565b335f52600160205260405f2054908181115f146103265761025f82826109f3565b905b60405163a9059cbb60e01b815233600482015260248101919091526020816044815f7f00000000000000000000000000000000000000000000000000000000000000006001600160a01b03165af1801561031b576102ee575b5060405191825260208201527ff3a670cd3af7d64b488926880889d08a8585a138ff455227af6737339a1ec26260403392a2005b61030f9060203d602011610314575b61030781836109bd565b810190610be4565b6102ba565b503d6102fd565b6040513d5f823e3d90fd5b5f90610261565b6040516370a0823160e01b81523060048201526020816024817f00000000000000000000000000000000000000000000000000000000000000006001600160a01b03165afa90811561031b575f91610396575b5060045560ff191660011760055561023561020e565b9290506020833d6020116103c3575b816103b2602093836109bd565b810103126100ff5791516001610380565b3d91506103a5565b63b317087b60e01b5f5260045ffd5b6306d3830f60e21b5f5260045ffd5b63e9bbe5e760e01b5f5260045ffd5b346100ff5760203660031901126100ff576004357f000000000000000000000000000000000000000000000000000000000000000042101561065a5760ff6007541661064b57801561063c577f000000000000000000000000000000000000000000000000000000000000000090610472600354836109f3565b90811561062d57818111156106255750905b6040516370a0823160e01b81523060048201527f00000000000000000000000000000000000000000000000000000000000000006001600160a01b0316602082602481845afa91821561031b575f926105f0575b5060205f916064604051809481936323b872dd60e01b83523360048401523060248401528960448401525af1801561031b576105d3575b5060025490816105bb57505081905b335f525f60205260405f20610534838254610bfc565b905561054282600254610bfc565b60025561055183600354610bfc565b600355335f52600160205260405f2061056b848254610bfc565b9055600354146105a9575b60405191825260208201527f73a19dd210f1a7f902193214c0ee91dd35ee5b4d920cba8d519eca65a7b488ca60403392a2005b600160ff196007541617600755610576565b6105c86105cd9285610a14565b610a27565b9061051e565b6105eb9060203d6020116103145761030781836109bd565b61050f565b9091506020813d60201161061d575b8161060c602093836109bd565b810103126100ff57519060206104d8565b3d91506105ff565b905090610484565b634fbf92cf60e01b5f5260045ffd5b631f2a200560e01b5f5260045ffd5b63fc5c1c4560e01b5f5260045ffd5b6346a72a3160e11b5f5260045ffd5b346100ff5760203660031901126100ff576004356001600160a01b038116908190036100ff575f526006602052602060ff60405f2054166040519015158152f35b346100ff575f3660031901126100ff5760206106c4610b2a565b604051908152f35b346100ff575f3660031901126100ff5760206040517f00000000000000000000000000000000000000000000000000000000000000008152f35b346100ff575f3660031901126100ff57602060ff600754166040519015158152f35b346100ff575f3660031901126100ff576040517f00000000000000000000000000000000000000000000000000000000000000006001600160a01b03168152602090f35b346100ff575f3660031901126100ff576020600454604051908152f35b346100ff5760203660031901126100ff576004356001600160a01b038116908190036100ff575f526001602052602060405f2054604051908152f35b346100ff575f3660031901126100ff576040517f00000000000000000000000000000000000000000000000000000000000000006001600160a01b03168152602090f35b346100ff575f3660031901126100ff576020600254604051908152f35b346100ff5760203660031901126100ff576004356001600160a01b03811681036100ff576106c4602091610a45565b346100ff575f3660031901126100ff5760206040517f00000000000000000000000000000000000000000000000000000000000000008152f35b346100ff575f3660031901126100ff5760035460055460ff16156109325760a091506004545b818082111561092a576108c7916109f3565b600254907f0000000000000000000000000000000000000000000000000000000000000000918242101592835f1461091957505f915b6040519485526020850152604084015260608301526080820152f35b6109249042906109f3565b916108fd565b50505f6108c7565b6370a0823160e01b82523060048301526020826024817f00000000000000000000000000000000000000000000000000000000000000006001600160a01b03165afa801561031b575f9061098a575b60a092506108b5565b506020823d6020116109b5575b816109a4602093836109bd565b810103126100ff5760a09151610981565b3d9150610997565b90601f8019910116810190811067ffffffffffffffff8211176109df57604052565b634e487b7160e01b5f52604160045260245ffd5b91908203918211610a0057565b634e487b7160e01b5f52601160045260245ffd5b81810292918115918404141715610a0057565b8115610a31570490565b634e487b7160e01b5f52601260045260245ffd5b6001600160a01b03165f9081526020819052604090205480158015610b20575b610b1b5760055460ff1615610a8657610235610a8391600454610a14565b90565b6040516370a0823160e01b81523060048201526020816024817f00000000000000000000000000000000000000000000000000000000000000006001600160a01b03165afa90811561031b575f91610ae7575b50610a839161023591610a14565b90506020813d602011610b13575b81610b02602093836109bd565b810103126100ff5751610a83610ad9565b3d9150610af5565b505f90565b5060025415610a65565b6002548015610bdc576040516370a0823160e01b8152306004820152906020826024817f00000000000000000000000000000000000000000000000000000000000000006001600160a01b03165afa91821561031b575f92610ba8575b50620f4240820291808304620f42401490151715610a0057610a8391610a27565b9091506020813d602011610bd4575b81610bc4602093836109bd565b810103126100ff5751905f610b87565b3d9150610bb7565b50620f424090565b908160209103126100ff575180151581036100ff5790565b91908201809211610a005756fea264697066735822122077a2bbdf617bd6676d0eb1228628e4bfa6d1b1c2dc2f7f5ac374dd1b458fbd3f64736f6c634300081e0033a2646970667358221220f1331069e16ed40d89fda1bbdff1c5141c5c66ebd28f722dddf053fb7a558f5764736f6c634300081e0033","linkReferences":{}},"methodIdentifiers":{"agentCount()":"b7dc1284","agents(uint256)":"513856c8","getAgent(uint256)":"2de5aaf7","getAgentByWallet(address)":"85f8dd8d","listAgents(uint256,uint256)":"1047d209","owner()":"8da5cb5b","postBond(uint256,uint256)":"184fed04","registerAgent(address,string,string,string,uint256,uint256,uint8)":"6008f90c","updateEndpoint(uint256,string)":"54fec772","usdc()":"3e413bee","walletToAgent(address)":"e16abb17","withdrawBond(uint256)":"c3daab96"},"id":20}