{"abi":[{"type":"constructor","inputs":[{"name":"_usdc","type":"address","internalType":"address"}],"stateMutability":"nonpayable"},{"type":"function","name":"agentCount","inputs":[],"outputs":[{"name":"","type":"uint256","internalType":"uint256"}],"stateMutability":"view"},{"type":"function","name":"agents","inputs":[{"name":"","type":"uint256","internalType":"uint256"}],"outputs":[{"name":"operator","type":"address","internalType":"address"},{"name":"owsWallet","type":"address","internalType":"address"},{"name":"vault","type":"address","internalType":"address"},{"name":"name","type":"string","internalType":"string"},{"name":"endpoint","type":"string","internalType":"string"},{"name":"description","type":"string","internalType":"string"},{"name":"registeredAt","type":"uint256","internalType":"uint256"}],"stateMutability":"view"},{"type":"function","name":"getAgent","inputs":[{"name":"agentId","type":"uint256","internalType":"uint256"}],"outputs":[{"name":"","type":"tuple","internalType":"struct AgentRegistry.AgentInfo","components":[{"name":"operator","type":"address","internalType":"address"},{"name":"owsWallet","type":"address","internalType":"address"},{"name":"vault","type":"address","internalType":"address"},{"name":"name","type":"string","internalType":"string"},{"name":"endpoint","type":"string","internalType":"string"},{"name":"description","type":"string","internalType":"string"},{"name":"registeredAt","type":"uint256","internalType":"uint256"}]}],"stateMutability":"view"},{"type":"function","name":"getAgentByWallet","inputs":[{"name":"owsWallet","type":"address","internalType":"address"}],"outputs":[{"name":"","type":"tuple","internalType":"struct AgentRegistry.AgentInfo","components":[{"name":"operator","type":"address","internalType":"address"},{"name":"owsWallet","type":"address","internalType":"address"},{"name":"vault","type":"address","internalType":"address"},{"name":"name","type":"string","internalType":"string"},{"name":"endpoint","type":"string","internalType":"string"},{"name":"description","type":"string","internalType":"string"},{"name":"registeredAt","type":"uint256","internalType":"uint256"}]}],"stateMutability":"view"},{"type":"function","name":"listAgents","inputs":[{"name":"offset","type":"uint256","internalType":"uint256"},{"name":"limit","type":"uint256","internalType":"uint256"}],"outputs":[{"name":"result","type":"tuple[]","internalType":"struct AgentRegistry.AgentInfo[]","components":[{"name":"operator","type":"address","internalType":"address"},{"name":"owsWallet","type":"address","internalType":"address"},{"name":"vault","type":"address","internalType":"address"},{"name":"name","type":"string","internalType":"string"},{"name":"endpoint","type":"string","internalType":"string"},{"name":"description","type":"string","internalType":"string"},{"name":"registeredAt","type":"uint256","internalType":"uint256"}]}],"stateMutability":"view"},{"type":"function","name":"owner","inputs":[],"outputs":[{"name":"","type":"address","internalType":"address"}],"stateMutability":"view"},{"type":"function","name":"registerAgent","inputs":[{"name":"owsWallet","type":"address","internalType":"address"},{"name":"name","type":"string","internalType":"string"},{"name":"endpoint","type":"string","internalType":"string"},{"name":"description","type":"string","internalType":"string"},{"name":"maturity","type":"uint256","internalType":"uint256"},{"name":"fundingGoal","type":"uint256","internalType":"uint256"},{"name":"sweeper","type":"address","internalType":"address"}],"outputs":[{"name":"agentId","type":"uint256","internalType":"uint256"},{"name":"vault","type":"address","internalType":"address"}],"stateMutability":"nonpayable"},{"type":"function","name":"setAuthorizedSource","inputs":[{"name":"agentId","type":"uint256","internalType":"uint256"},{"name":"source","type":"address","internalType":"address"},{"name":"authorized","type":"bool","internalType":"bool"}],"outputs":[],"stateMutability":"nonpayable"},{"type":"function","name":"setSweeper","inputs":[{"name":"agentId","type":"uint256","internalType":"uint256"},{"name":"sweeper","type":"address","internalType":"address"}],"outputs":[],"stateMutability":"nonpayable"},{"type":"function","name":"updateEndpoint","inputs":[{"name":"agentId","type":"uint256","internalType":"uint256"},{"name":"endpoint","type":"string","internalType":"string"}],"outputs":[],"stateMutability":"nonpayable"},{"type":"function","name":"usdc","inputs":[],"outputs":[{"name":"","type":"address","internalType":"address"}],"stateMutability":"view"},{"type":"function","name":"walletToAgent","inputs":[{"name":"","type":"address","internalType":"address"}],"outputs":[{"name":"","type":"uint256","internalType":"uint256"}],"stateMutability":"view"},{"type":"event","name":"AgentRegistered","inputs":[{"name":"agentId","type":"uint256","indexed":true,"internalType":"uint256"},{"name":"operator","type":"address","indexed":true,"internalType":"address"},{"name":"vault","type":"address","indexed":true,"internalType":"address"},{"name":"owsWallet","type":"address","indexed":false,"internalType":"address"},{"name":"name","type":"string","indexed":false,"internalType":"string"}],"anonymous":false},{"type":"event","name":"EndpointUpdated","inputs":[{"name":"agentId","type":"uint256","indexed":true,"internalType":"uint256"},{"name":"endpoint","type":"string","indexed":false,"internalType":"string"}],"anonymous":false},{"type":"event","name":"SweeperUpdated","inputs":[{"name":"agentId","type":"uint256","indexed":true,"internalType":"uint256"},{"name":"sweeper","type":"address","indexed":false,"internalType":"address"}],"anonymous":false},{"type":"error","name":"InvalidFundingGoal","inputs":[]},{"type":"error","name":"InvalidMaturity","inputs":[]},{"type":"error","name":"NotOperator","inputs":[]},{"type":"error","name":"NotOwner","inputs":[]},{"type":"error","name":"ZeroAddress","inputs":[]}],"bytecode":{"object":"0x60a034607e57601f61210538819003918201601f19168301916001600160401b03831184841017608257808492602094604052833981010312607e57516001600160a01b0381168103607e576080525f80546001600160a01b0319163317905560405161206e9081610097823960805181818161028001526109e20152f35b5f80fd5b634e487b7160e01b5f52604160045260245ffdfe6080806040526004361015610012575f80fd5b5f905f3560e01c9081630f38433214610ba4575080630f70ab5314610acb5780631047d20914610a455780632de5aaf714610a115780633e413bee146109cc578063513856c81461090e57806354fec772146107705780636a760f751461018857806385f8dd8d146101225780638da5cb5b146100fb578063b7dc1284146100dd5763e16abb17146100a2575f80fd5b346100da5760203660031901126100da576020906040906001600160a01b036100c9610c79565b168152600383522054604051908152f35b80fd5b50346100da57806003193601126100da576020600254604051908152f35b50346100da57806003193601126100da57546040516001600160a01b039091168152602090f35b50346100da5760203660031901126100da57610170604061018492610145610c79565b61014d610ec0565b506001600160a01b03168152600360209081528282205482526001905220610f20565b604051918291602083526020830190610cb3565b0390f35b50346100da5760e03660031901126100da576101a2610c79565b6024356001600160401b03811161076c576101c1903690600401610e5b565b6044939193356001600160401b03811161076c576101e3903690600401610e5b565b9490926064356001600160401b03811161076857610205903690600401610e5b565b91906084359560a4359360c4359860018060a01b038a16809a03610704576001600160a01b0316948515610759574289111561074a57801561073b576002545f19811461072757600101988960025560405191610f1191828401928484106001600160401b03851117610713579160c09391859361112885397f00000000000000000000000000000000000000000000000000000000000000006001600160a01b03168352336020840152306040840152606083018b9052608083015260a082015203019085f08015610708576001600160a01b031698806106b0575b50889961033660409a999a51946102f886610d6b565b3386526103276020870195898752604088019e8f52610318368d8d6110e2565b946060890195865236916110e2565b936080870194855236916110e2565b60a085019081524260c086019081528b87526001602081905260408820965187546001600160a01b039182166001600160a01b031991821617895596519188018054928216928816929092179091559c5160028701805491909e16951694909417909b5551805160038501916001600160401b03821161069c576103c4826103be8554610d33565b85611073565b602090601f831160011461063a576103f39291889183610511575b50508160011b915f199060031b1c19161790565b90555b51805160048401916001600160401b0382116106265761041a826103be8554610d33565b602090601f83116001146105c45761044892918791836105115750508160011b915f199060031b1c19161790565b90555b6005820198519889516001600160401b0381116105b057610476816104708454610d33565b84611073565b6020601f821160011461051c57948998979460068c9895899560409f604096807fcd117928f51323dc241380cfc2e4dff28cc597af1872c765d3522d92bb4ee6a99c6104d69389926105115750508160011b915f199060031b1c19161790565b90555b5191015583815260036020522055610502895192839283528a602084015233968b8401916110c2565b0390a482519182526020820152f35b015190505f806103df565b8286528086209b601f198316875b81811061059857508c9895899560409f6040968f9e9d9a95917fcd117928f51323dc241380cfc2e4dff28cc597af1872c765d3522d92bb4ee6a99c976001938360069810610580575b505050811b0190556104d9565b01515f1960f88460031b161c191690555f8080610573565b838301518f556001909e019d6020938401930161052a565b634e487b7160e01b85526041600452602485fd5b8387528187209190601f198416885b81811061060e57509084600195949392106105f6575b505050811b01905561044b565b01515f1960f88460031b161c191690555f80806105e9565b929360206001819287860151815501950193016105d3565b634e487b7160e01b86526041600452602486fd5b8388528188209190601f198416895b818110610684575090846001959493921061066c575b505050811b0190556103f6565b01515f1960f88460031b161c191690555f808061065f565b92936020600181928786015181550195019301610649565b634e487b7160e01b87526041600452602487fd5b893b15610704576040516311ea615d60e11b815260048101919091528481602481838e5af180156106f957156102e2576106eb858092610d9a565b6106f5575f6102e2565b8380fd5b6040513d87823e3d90fd5b8480fd5b6040513d86823e3d90fd5b634e487b7160e01b89526041600452602489fd5b634e487b7160e01b86526011600452602486fd5b632a98a85960e21b8552600485fd5b6318f4d05960e31b8552600485fd5b63d92e233d60e01b8552600485fd5b5080fd5b8280fd5b50346100da5760403660031901126100da57600435906024356001600160401b038111610768576107a5903690600401610e5b565b8383526001602052604083208054919492916001600160a01b031633036108ff57600401936001600160401b0381116108eb576107ec816107e68754610d33565b87611073565b8394601f82116001146108675761083c828087987f6f15a2ac3d3f0fda377d29e40db81b39b8d9fd8606e205401974b45fc86e313797989161085c575b508160011b915f199060031b1c19161790565b90555b6108566040519283926020845260208401916110c2565b0390a280f35b90508501355f610829565b8085526020852095601f198316865b8181106108d3575090837f6f15a2ac3d3f0fda377d29e40db81b39b8d9fd8606e205401974b45fc86e313796979892106108ba575b5050600182811b01905561083f565b8401355f19600385901b60f8161c191690555f806108ab565b85830135895560019098019760209283019201610876565b634e487b7160e01b84526041600452602484fd5b631f0853c160e21b8452600484fd5b50346100da5760203660031901126100da57600435815260016020819052604090912080549181015460028201546001600160a01b03918216938216929116906109c2906109b461096160038301610dbb565b6109a661097060048501610dbb565b91600661097f60058701610dbb565b95015496604051998a998a5260208a0152604089015260e0606089015260e0880190610c8f565b908682036080880152610c8f565b9084820360a0860152610c8f565b9060c08301520390f35b50346100da57806003193601126100da576040517f00000000000000000000000000000000000000000000000000000000000000006001600160a01b03168152602090f35b50346100da5760203660031901126100da57610170604061018492610a34610ec0565b506004358152600160205220610f20565b50346100da5760403660031901126100da57610a65602435600435610f96565b906040519182916020830160208452825180915260408401602060408360051b870101940192905b828210610a9c57505050500390f35b91936001919395506020610abb8192603f198a82030186528851610cb3565b9601920192018594939192610a8d565b50346100da5760403660031901126100da57600435610ae8610c63565b81835260016020526040832080546001600160a01b031633036108ff57600201546001600160a01b0316908390823b15610768576040516311ea615d60e11b81526001600160a01b03909116600482018190529282908290602490829084905af18015610b9957610b84575b505060207f11bb5800e587d42f0ec5eed8096ee6b86a9c84d2d8e36c081c295bd6dad3200791604051908152a280f35b81610b8e91610d9a565b61076c57825f610b54565b6040513d84823e3d90fd5b905034610c50576060366003190112610c5057610bbf610c63565b60443590811515809203610c50576004355f90815260016020526040902080546001600160a01b03163303610c5457600201546001600160a01b0316803b15610c5057835f60449281958395633c284e9360e21b855260018060a01b0316600485015260248401525af18015610c4557610c37575080f35b610c4391505f90610d9a565b005b6040513d5f823e3d90fd5b5f80fd5b631f0853c160e21b5f5260045ffd5b602435906001600160a01b0382168203610c5057565b600435906001600160a01b0382168203610c5057565b805180835260209291819084018484015e5f828201840152601f01601f1916010190565b9060018060a01b03825116815260018060a01b03602083015116602082015260018060a01b03604083015116604082015260c080610d2a610d18610d06606087015160e0606088015260e0870190610c8f565b60808701518682036080880152610c8f565b60a086015185820360a0870152610c8f565b93015191015290565b90600182811c92168015610d61575b6020831014610d4d57565b634e487b7160e01b5f52602260045260245ffd5b91607f1691610d42565b60e081019081106001600160401b03821117610d8657604052565b634e487b7160e01b5f52604160045260245ffd5b90601f801991011681019081106001600160401b03821117610d8657604052565b9060405191825f825492610dce84610d33565b8084529360018116908115610e395750600114610df5575b50610df392500383610d9a565b565b90505f9291925260205f20905f915b818310610e1d575050906020610df3928201015f610de6565b6020919350806001915483858901015201910190918492610e04565b905060209250610df394915060ff191682840152151560051b8201015f610de6565b9181601f84011215610c50578235916001600160401b038311610c505760208381860195010111610c5057565b91908203918211610e9557565b634e487b7160e01b5f52601160045260245ffd5b6001600160401b038111610d865760051b60200190565b60405190610ecd82610d6b565b5f60c08382815282602082015282604082015260608082015260606080820152606060a08201520152565b8051821015610f0c5760209160051b010190565b634e487b7160e01b5f52603260045260245ffd5b90604051610f2d81610d6b565b82546001600160a01b039081168252600184015481166020830152600284015416604082015291829060c090600690610f6860038201610dbb565b6060850152610f7960048201610dbb565b6080850152610f8a60058201610dbb565b60a08501520154910152565b9190600254908184101561106b57830190818411610e9557808211611063575b50610fc18382610e88565b90610fcb82610ea9565b91610fd96040519384610d9a565b808352610fe8601f1991610ea9565b015f5b81811061104c5750508193805b8281106110055750505050565b6001810190818111610e95576001915f528160205261104560405f2061103461102e8685610e88565b91610f20565b61103e8289610ef8565b5286610ef8565b5001610ff8565b602090611057610ec0565b82828701015201610feb565b90505f610fb6565b506060925050565b601f821161108057505050565b5f5260205f20906020601f840160051c830193106110b8575b601f0160051c01905b8181106110ad575050565b5f81556001016110a2565b9091508190611099565b908060209392818452848401375f828201840152601f01601f1916010190565b9291926001600160401b038211610d86576040519161110b601f8201601f191660200184610d9a565b829481845281830111610c50578281602093845f96013701015256fe6101403461013057601f610f1138819003918201601f19168301916001600160401b038311848410176101345780849260c0946040528339810103126101305761004881610148565b9061005560208201610148565b61006160408301610148565b61006d60608401610148565b9160a060808501519401519460018060a01b031660805260a05260c05260e0526101005261012052604051610db4908161015d82396080518181816103910152818161051c015281816107c901528181610a400152610b8a015260a0518181816107850152610995015260c0518181816101a7015281816106e5015261085b015260e0518161014f0152610100518181816102ba01528181610475015281816108e50152818161092601526109d50152610120518181816104ad015261072b0152f35b5f80fd5b634e487b7160e01b5f52604160045260245ffd5b51906001600160a01b03821682036101305756fe6080806040526004361015610012575f80fd5b5f3560e01c90816313b0ab2814610aeb5750806317727a0014610983578063200d2ed214610908578063204f83f9146108ce57806323d4c2ba1461084057806329b1f2de146108155780633a98ef39146107f85780633e413bee146107b4578063570ca735146107705780635c9920fc1461074e5780637a3a0e84146107145780637b103999146106d05780639189a59e146106a8578063964ebf421461066b5780639f4568ef1461062e578063b6b55f251461045f578063be040fb0146102a8578063bf2d9e0b1461028b578063ce7c2ac214610254578063dc4035c714610232578063f0a13a4c1461017e578063f5ff5c761461013a5763ff50abdc14610119575f80fd5b34610136575f366003190112610136576020600254604051908152f35b5f80fd5b34610136575f366003190112610136576040517f00000000000000000000000000000000000000000000000000000000000000006001600160a01b03168152602090f35b3461013657604036600319011261013657610197610c66565b60243590811515809203610136577f00000000000000000000000000000000000000000000000000000000000000006001600160a01b031633036102235760207f156964222630dfa2c9995108d1518962b131fb3525191a58194ce136ca4278079160018060a01b031692835f526005825260405f2060ff1981541660ff8316179055604051908152a2005b633217675b60e21b5f5260045ffd5b34610136575f36600319011261013657602060ff600654166040519015158152f35b34610136576020366003190112610136576001600160a01b03610275610c66565b165f525f602052602060405f2054604051908152f35b34610136575f366003190112610136576020600354604051908152f35b34610136575f366003190112610136577f0000000000000000000000000000000000000000000000000000000000000000421061045057335f52600760205260ff60405f20541661044157335f525f60205260405f2054801561043257335f52600760205260405f20600160ff198254161790556103546002549161034f61033b8261033660035487610cca565b610cf8565b916103496001548094610d0b565b94610cf8565b610d0b565b9061038c60206103648484610ceb565b60405163a9059cbb60e01b815233600482015260248101949094529291829081906044820190565b03815f7f00000000000000000000000000000000000000000000000000000000000000006001600160a01b03165af18015610427576103fa575b5060405191825260208201527ff3a670cd3af7d64b488926880889d08a8585a138ff455227af6737339a1ec26260403392a2005b61041b9060203d602011610420575b6104138183610c7c565b810190610cb2565b6103c6565b503d610409565b6040513d5f823e3d90fd5b63b317087b60e01b5f5260045ffd5b6306d3830f60e21b5f5260045ffd5b63e9bbe5e760e01b5f5260045ffd5b34610136576020366003190112610136576004357f000000000000000000000000000000000000000000000000000000000000000042101561061f5760ff60085416610610578015610601577f0000000000000000000000000000000000000000000000000000000000000000906104d960025483610ceb565b9081156105f257818111156105ea5750905b6040516323b872dd60e01b8152336004820152306024820152604481018390526020816064815f6001600160a01b037f0000000000000000000000000000000000000000000000000000000000000000165af18015610427576105cd575b50335f525f60205260405f20610560838254610cca565b905561056e82600154610cca565b60015561057d82600254610cca565b80600255146105bb575b6040519080825260208201527f73a19dd210f1a7f902193214c0ee91dd35ee5b4d920cba8d519eca65a7b488ca60403392a2005b600160ff196008541617600855610587565b6105e59060203d602011610420576104138183610c7c565b610549565b9050906104eb565b634fbf92cf60e01b5f5260045ffd5b631f2a200560e01b5f5260045ffd5b63fc5c1c4560e01b5f5260045ffd5b6346a72a3160e11b5f5260045ffd5b34610136576020366003190112610136576001600160a01b0361064f610c66565b165f526007602052602060ff60405f2054166040519015158152f35b34610136576020366003190112610136576001600160a01b0361068c610c66565b165f526005602052602060ff60405f2054166040519015158152f35b34610136575f366003190112610136576004546040516001600160a01b039091168152602090f35b34610136575f366003190112610136576040517f00000000000000000000000000000000000000000000000000000000000000006001600160a01b03168152602090f35b34610136575f3660031901126101365760206040517f00000000000000000000000000000000000000000000000000000000000000008152f35b34610136575f36600319011261013657602060ff600854166040519015158152f35b34610136575f366003190112610136576040517f00000000000000000000000000000000000000000000000000000000000000006001600160a01b03168152602090f35b34610136575f366003190112610136576040517f00000000000000000000000000000000000000000000000000000000000000006001600160a01b03168152602090f35b34610136575f366003190112610136576020600154604051908152f35b34610136576020366003190112610136576020610838610833610c66565b610d29565b604051908152f35b3461013657602036600319011261013657610859610c66565b7f00000000000000000000000000000000000000000000000000000000000000006001600160a01b0316330361022357600480546001600160a01b0319166001600160a01b039290921691821790557f4680981d96e08986909e3a3260d80fe97048cfee5c1ba436ccd8bc43f65eeae15f80a2005b34610136575f3660031901126101365760206040517f00000000000000000000000000000000000000000000000000000000000000008152f35b34610136575f3660031901126101365760a0600254600354600154907f0000000000000000000000000000000000000000000000000000000000000000918242101592835f1461097257505f915b6040519485526020850152604084015260608301526080820152f35b61097d904290610ceb565b91610956565b34610136575f366003190112610136577f00000000000000000000000000000000000000000000000000000000000000006001600160a01b0381169033829003610adc576006549060ff8216610acd577f0000000000000000000000000000000000000000000000000000000000000000421080610ac0575b61061f5760ff1990911660011760065560025460405163a9059cbb60e01b81526001600160a01b03909216600483015260248201819052602082806044810103815f7f00000000000000000000000000000000000000000000000000000000000000006001600160a01b03165af1908115610427577ffd282af50c2a0af33f26b6abcc27c8bae5fc57dc3f7ce9b71612b4cd6db59ca092602092610aa5575b50604051908152a2005b610abb90833d8511610420576104138183610c7c565b610a9b565b5060ff60085416156109fc565b63431ecacf60e11b5f5260045ffd5b631f0853c160e21b5f5260045ffd5b346101365760403660031901126101365760243560043567ffffffffffffffff821161013657366023830112156101365781600401359267ffffffffffffffff8411610136573660248585010111610136576004546001600160a01b031633141580610c4f575b610c40578115610601576323b872dd60e01b8152336004820152306024820152604481018290526020816064815f6001600160a01b037f0000000000000000000000000000000000000000000000000000000000000000165af18015610427577fe10c8f416e9058132cba9d39aa84448aaf3268ee5ea0cdaa28960d61bee779b3938592602492610c23575b50610beb84600354610cca565b600355604051938452604060208501528260408501520160608301375f606084830101526060813394601f80199101168101030190a2005b610c3b9060203d602011610420576104138183610c7c565b610bde565b630982ebb360e01b5f5260045ffd5b50335f52600560205260ff60405f20541615610b52565b600435906001600160a01b038216820361013657565b90601f8019910116810190811067ffffffffffffffff821117610c9e57604052565b634e487b7160e01b5f52604160045260245ffd5b90816020910312610136575180151581036101365790565b91908201809211610cd757565b634e487b7160e01b5f52601160045260245ffd5b91908203918211610cd757565b81810292918115918404141715610cd757565b8115610d15570490565b634e487b7160e01b5f52601260045260245ffd5b6001600160a01b03165f9081526020819052604090205480158015610d74575b610d6f57610d63610d6c9161033660025460035490610cca565b60015490610d0b565b90565b505f90565b5060015415610d4956fea2646970667358221220090778f445a5f9553a7ceb690528c8700e48b558d3584e855d65c8bba922335464736f6c634300081e0033a2646970667358221220dd6a539678edfcd14216cec4585e14d062bc5bd68988d3514ac5d1c1b3bc4d8664736f6c634300081e0033","linkReferences":{}},"methodIdentifiers":{"agentCount()":"b7dc1284","agents(uint256)":"513856c8","getAgent(uint256)":"2de5aaf7","getAgentByWallet(address)":"85f8dd8d","listAgents(uint256,uint256)":"1047d209","owner()":"8da5cb5b","registerAgent(address,string,string,string,uint256,uint256,address)":"6a760f75","setAuthorizedSource(uint256,address,bool)":"0f384332","setSweeper(uint256,address)":"0f70ab53","updateEndpoint(uint256,string)":"54fec772","usdc()":"3e413bee","walletToAgent(address)":"e16abb17"},"id":20}