{"abi":[{"type":"constructor","inputs":[{"name":"_usdc","type":"address","internalType":"address"},{"name":"_operator","type":"address","internalType":"address"},{"name":"_agent","type":"address","internalType":"address"},{"name":"_maturity","type":"uint256","internalType":"uint256"},{"name":"_fundingGoal","type":"uint256","internalType":"uint256"}],"stateMutability":"nonpayable"},{"type":"function","name":"agent","inputs":[],"outputs":[{"name":"","type":"address","internalType":"address"}],"stateMutability":"view"},{"type":"function","name":"balanceSnapshot","inputs":[],"outputs":[{"name":"","type":"uint256","internalType":"uint256"}],"stateMutability":"view"},{"type":"function","name":"deposit","inputs":[{"name":"amount","type":"uint256","internalType":"uint256"}],"outputs":[],"stateMutability":"nonpayable"},{"type":"function","name":"depositedAmount","inputs":[{"name":"","type":"address","internalType":"address"}],"outputs":[{"name":"","type":"uint256","internalType":"uint256"}],"stateMutability":"view"},{"type":"function","name":"fundingGoal","inputs":[],"outputs":[{"name":"","type":"uint256","internalType":"uint256"}],"stateMutability":"view"},{"type":"function","name":"maturity","inputs":[],"outputs":[{"name":"","type":"uint256","internalType":"uint256"}],"stateMutability":"view"},{"type":"function","name":"operator","inputs":[],"outputs":[{"name":"","type":"address","internalType":"address"}],"stateMutability":"view"},{"type":"function","name":"previewRedeem","inputs":[{"name":"lp","type":"address","internalType":"address"}],"outputs":[{"name":"","type":"uint256","internalType":"uint256"}],"stateMutability":"view"},{"type":"function","name":"redeem","inputs":[],"outputs":[],"stateMutability":"nonpayable"},{"type":"function","name":"redeemed","inputs":[{"name":"","type":"address","internalType":"address"}],"outputs":[{"name":"","type":"bool","internalType":"bool"}],"stateMutability":"view"},{"type":"function","name":"sharePrice","inputs":[],"outputs":[{"name":"","type":"uint256","internalType":"uint256"}],"stateMutability":"view"},{"type":"function","name":"shares","inputs":[{"name":"","type":"address","internalType":"address"}],"outputs":[{"name":"","type":"uint256","internalType":"uint256"}],"stateMutability":"view"},{"type":"function","name":"snapshotTaken","inputs":[],"outputs":[{"name":"","type":"bool","internalType":"bool"}],"stateMutability":"view"},{"type":"function","name":"status","inputs":[],"outputs":[{"name":"deposited","type":"uint256","internalType":"uint256"},{"name":"revenue","type":"uint256","internalType":"uint256"},{"name":"shares_","type":"uint256","internalType":"uint256"},{"name":"timeLeft","type":"uint256","internalType":"uint256"},{"name":"matured","type":"bool","internalType":"bool"}],"stateMutability":"view"},{"type":"function","name":"totalDeposited","inputs":[],"outputs":[{"name":"","type":"uint256","internalType":"uint256"}],"stateMutability":"view"},{"type":"function","name":"totalShares","inputs":[],"outputs":[{"name":"","type":"uint256","internalType":"uint256"}],"stateMutability":"view"},{"type":"function","name":"usdc","inputs":[],"outputs":[{"name":"","type":"address","internalType":"contract IERC20"}],"stateMutability":"view"},{"type":"function","name":"vaultClosed","inputs":[],"outputs":[{"name":"","type":"bool","internalType":"bool"}],"stateMutability":"view"},{"type":"event","name":"Deposited","inputs":[{"name":"lp","type":"address","indexed":true,"internalType":"address"},{"name":"amount","type":"uint256","indexed":false,"internalType":"uint256"},{"name":"sharesIssued","type":"uint256","indexed":false,"internalType":"uint256"}],"anonymous":false},{"type":"event","name":"Redeemed","inputs":[{"name":"lp","type":"address","indexed":true,"internalType":"address"},{"name":"principal","type":"uint256","indexed":false,"internalType":"uint256"},{"name":"yield","type":"uint256","indexed":false,"internalType":"uint256"}],"anonymous":false},{"type":"error","name":"AlreadyRedeemed","inputs":[]},{"type":"error","name":"FundingGoalReached","inputs":[]},{"type":"error","name":"NoShares","inputs":[]},{"type":"error","name":"VaultAlreadyClosed","inputs":[]},{"type":"error","name":"VaultNotMatured","inputs":[]},{"type":"error","name":"VaultNotOpen","inputs":[]},{"type":"error","name":"ZeroAmount","inputs":[]}],"bytecode":{"object":"0x6101203461010857601f610d7438819003918201601f19168301916001600160401b0383118484101761010c5780849260a0946040528339810103126101085761004881610120565b9061005560208201610120565b61006160408301610120565b90608060608401519301519360018060a01b031660805260a05260c05260e05261010052604051610c3f908161013582396080518181816102850152818161034801528181610499015281816107da0152818161094a01528181610aa10152610b4f015260a0518161073d015260c05181610118015260e0518181816101b60152818161040e0152818161086c01526108cd01526101005181818161044601526106e30152f35b5f80fd5b634e487b7160e01b5f52604160045260245ffd5b51906001600160a01b03821682036101085756fe6080806040526004361015610012575f80fd5b5f3560e01c908163200d2ed21461088f57508063204f83f91461085557806329b1f2de146108265780633a98ef39146108095780633e413bee146107c55780634a4643f7146107895780635132124c1461076c578063570ca735146107285780635c9920fc146107065780637a3a0e84146106cc57806387269729146106aa5780639f4568ef14610669578063b6b55f25146103f8578063be040fb0146101a4578063ce7c2ac214610169578063f4a5b0cd14610147578063f5ff5c76146101035763ff50abdc146100e2575f80fd5b346100ff575f3660031901126100ff576020600354604051908152f35b5f80fd5b346100ff575f3660031901126100ff576040517f00000000000000000000000000000000000000000000000000000000000000006001600160a01b03168152602090f35b346100ff575f3660031901126100ff57602060ff600554166040519015158152f35b346100ff5760203660031901126100ff576004356001600160a01b038116908190036100ff575f525f602052602060405f2054604051908152f35b346100ff575f3660031901126100ff577f000000000000000000000000000000000000000000000000000000000000000042106103e957335f52600660205260ff60405f2054166103da57335f525f60205260405f205480156103cb5760055460ff81161561032d575b5061023561023e91335f52600660205260405f20600160ff19825416179055600454610a14565b60025490610a27565b335f52600160205260405f2054908181115f146103265761025f82826109f3565b905b60405163a9059cbb60e01b815233600482015260248101919091526020816044815f7f00000000000000000000000000000000000000000000000000000000000000006001600160a01b03165af1801561031b576102ee575b5060405191825260208201527ff3a670cd3af7d64b488926880889d08a8585a138ff455227af6737339a1ec26260403392a2005b61030f9060203d602011610314575b61030781836109bd565b810190610be4565b6102ba565b503d6102fd565b6040513d5f823e3d90fd5b5f90610261565b6040516370a0823160e01b81523060048201526020816024817f00000000000000000000000000000000000000000000000000000000000000006001600160a01b03165afa90811561031b575f91610396575b5060045560ff191660011760055561023561020e565b9290506020833d6020116103c3575b816103b2602093836109bd565b810103126100ff5791516001610380565b3d91506103a5565b63b317087b60e01b5f5260045ffd5b6306d3830f60e21b5f5260045ffd5b63e9bbe5e760e01b5f5260045ffd5b346100ff5760203660031901126100ff576004357f000000000000000000000000000000000000000000000000000000000000000042101561065a5760ff6007541661064b57801561063c577f000000000000000000000000000000000000000000000000000000000000000090610472600354836109f3565b90811561062d57818111156106255750905b6040516370a0823160e01b81523060048201527f00000000000000000000000000000000000000000000000000000000000000006001600160a01b0316602082602481845afa91821561031b575f926105f0575b5060205f916064604051809481936323b872dd60e01b83523360048401523060248401528960448401525af1801561031b576105d3575b5060025490816105bb57505081905b335f525f60205260405f20610534838254610bfc565b905561054282600254610bfc565b60025561055183600354610bfc565b600355335f52600160205260405f2061056b848254610bfc565b9055600354146105a9575b60405191825260208201527f73a19dd210f1a7f902193214c0ee91dd35ee5b4d920cba8d519eca65a7b488ca60403392a2005b600160ff196007541617600755610576565b6105c86105cd9285610a14565b610a27565b9061051e565b6105eb9060203d6020116103145761030781836109bd565b61050f565b9091506020813d60201161061d575b8161060c602093836109bd565b810103126100ff57519060206104d8565b3d91506105ff565b905090610484565b634fbf92cf60e01b5f5260045ffd5b631f2a200560e01b5f5260045ffd5b63fc5c1c4560e01b5f5260045ffd5b6346a72a3160e11b5f5260045ffd5b346100ff5760203660031901126100ff576004356001600160a01b038116908190036100ff575f526006602052602060ff60405f2054166040519015158152f35b346100ff575f3660031901126100ff5760206106c4610b2a565b604051908152f35b346100ff575f3660031901126100ff5760206040517f00000000000000000000000000000000000000000000000000000000000000008152f35b346100ff575f3660031901126100ff57602060ff600754166040519015158152f35b346100ff575f3660031901126100ff576040517f00000000000000000000000000000000000000000000000000000000000000006001600160a01b03168152602090f35b346100ff575f3660031901126100ff576020600454604051908152f35b346100ff5760203660031901126100ff576004356001600160a01b038116908190036100ff575f526001602052602060405f2054604051908152f35b346100ff575f3660031901126100ff576040517f00000000000000000000000000000000000000000000000000000000000000006001600160a01b03168152602090f35b346100ff575f3660031901126100ff576020600254604051908152f35b346100ff5760203660031901126100ff576004356001600160a01b03811681036100ff576106c4602091610a45565b346100ff575f3660031901126100ff5760206040517f00000000000000000000000000000000000000000000000000000000000000008152f35b346100ff575f3660031901126100ff5760035460055460ff16156109325760a091506004545b818082111561092a576108c7916109f3565b600254907f0000000000000000000000000000000000000000000000000000000000000000918242101592835f1461091957505f915b6040519485526020850152604084015260608301526080820152f35b6109249042906109f3565b916108fd565b50505f6108c7565b6370a0823160e01b82523060048301526020826024817f00000000000000000000000000000000000000000000000000000000000000006001600160a01b03165afa801561031b575f9061098a575b60a092506108b5565b506020823d6020116109b5575b816109a4602093836109bd565b810103126100ff5760a09151610981565b3d9150610997565b90601f8019910116810190811067ffffffffffffffff8211176109df57604052565b634e487b7160e01b5f52604160045260245ffd5b91908203918211610a0057565b634e487b7160e01b5f52601160045260245ffd5b81810292918115918404141715610a0057565b8115610a31570490565b634e487b7160e01b5f52601260045260245ffd5b6001600160a01b03165f9081526020819052604090205480158015610b20575b610b1b5760055460ff1615610a8657610235610a8391600454610a14565b90565b6040516370a0823160e01b81523060048201526020816024817f00000000000000000000000000000000000000000000000000000000000000006001600160a01b03165afa90811561031b575f91610ae7575b50610a839161023591610a14565b90506020813d602011610b13575b81610b02602093836109bd565b810103126100ff5751610a83610ad9565b3d9150610af5565b505f90565b5060025415610a65565b6002548015610bdc576040516370a0823160e01b8152306004820152906020826024817f00000000000000000000000000000000000000000000000000000000000000006001600160a01b03165afa91821561031b575f92610ba8575b50620f4240820291808304620f42401490151715610a0057610a8391610a27565b9091506020813d602011610bd4575b81610bc4602093836109bd565b810103126100ff5751905f610b87565b3d9150610bb7565b50620f424090565b908160209103126100ff575180151581036100ff5790565b91908201809211610a005756fea264697066735822122077a2bbdf617bd6676d0eb1228628e4bfa6d1b1c2dc2f7f5ac374dd1b458fbd3f64736f6c634300081e0033","linkReferences":{}},"methodIdentifiers":{"agent()":"f5ff5c76","balanceSnapshot()":"5132124c","deposit(uint256)":"b6b55f25","depositedAmount(address)":"4a4643f7","fundingGoal()":"7a3a0e84","maturity()":"204f83f9","operator()":"570ca735","previewRedeem(address)":"29b1f2de","redeem()":"be040fb0","redeemed(address)":"9f4568ef","sharePrice()":"87269729","shares(address)":"ce7c2ac2","snapshotTaken()":"f4a5b0cd","status()":"200d2ed2","totalDeposited()":"ff50abdc","totalShares()":"3a98ef39","usdc()":"3e413bee","vaultClosed()":"5c9920fc"},"id":21}