{"abi":[{"type":"constructor","inputs":[{"name":"_usdc","type":"address","internalType":"address"},{"name":"_operator","type":"address","internalType":"address"},{"name":"_registry","type":"address","internalType":"address"},{"name":"_agent","type":"address","internalType":"address"},{"name":"_maturity","type":"uint256","internalType":"uint256"},{"name":"_fundingGoal","type":"uint256","internalType":"uint256"}],"stateMutability":"nonpayable"},{"type":"function","name":"agent","inputs":[],"outputs":[{"name":"","type":"address","internalType":"address"}],"stateMutability":"view"},{"type":"function","name":"authorizedSources","inputs":[{"name":"","type":"address","internalType":"address"}],"outputs":[{"name":"","type":"bool","internalType":"bool"}],"stateMutability":"view"},{"type":"function","name":"capitalWithdrawn","inputs":[],"outputs":[{"name":"","type":"bool","internalType":"bool"}],"stateMutability":"view"},{"type":"function","name":"deposit","inputs":[{"name":"amount","type":"uint256","internalType":"uint256"}],"outputs":[],"stateMutability":"nonpayable"},{"type":"function","name":"fundingGoal","inputs":[],"outputs":[{"name":"","type":"uint256","internalType":"uint256"}],"stateMutability":"view"},{"type":"function","name":"maturity","inputs":[],"outputs":[{"name":"","type":"uint256","internalType":"uint256"}],"stateMutability":"view"},{"type":"function","name":"operator","inputs":[],"outputs":[{"name":"","type":"address","internalType":"address"}],"stateMutability":"view"},{"type":"function","name":"previewRedeem","inputs":[{"name":"lp","type":"address","internalType":"address"}],"outputs":[{"name":"payout","type":"uint256","internalType":"uint256"}],"stateMutability":"view"},{"type":"function","name":"receiveRevenue","inputs":[{"name":"amount","type":"uint256","internalType":"uint256"},{"name":"source","type":"string","internalType":"string"}],"outputs":[],"stateMutability":"nonpayable"},{"type":"function","name":"redeem","inputs":[],"outputs":[],"stateMutability":"nonpayable"},{"type":"function","name":"redeemed","inputs":[{"name":"","type":"address","internalType":"address"}],"outputs":[{"name":"","type":"bool","internalType":"bool"}],"stateMutability":"view"},{"type":"function","name":"registry","inputs":[],"outputs":[{"name":"","type":"address","internalType":"address"}],"stateMutability":"view"},{"type":"function","name":"setAuthorizedSource","inputs":[{"name":"source","type":"address","internalType":"address"},{"name":"authorized","type":"bool","internalType":"bool"}],"outputs":[],"stateMutability":"nonpayable"},{"type":"function","name":"setSweeper","inputs":[{"name":"_sweeper","type":"address","internalType":"address"}],"outputs":[],"stateMutability":"nonpayable"},{"type":"function","name":"shares","inputs":[{"name":"","type":"address","internalType":"address"}],"outputs":[{"name":"","type":"uint256","internalType":"uint256"}],"stateMutability":"view"},{"type":"function","name":"status","inputs":[],"outputs":[{"name":"deposited","type":"uint256","internalType":"uint256"},{"name":"revenue","type":"uint256","internalType":"uint256"},{"name":"shares_","type":"uint256","internalType":"uint256"},{"name":"timeLeft","type":"uint256","internalType":"uint256"},{"name":"matured","type":"bool","internalType":"bool"}],"stateMutability":"view"},{"type":"function","name":"sweeper","inputs":[],"outputs":[{"name":"","type":"address","internalType":"address"}],"stateMutability":"view"},{"type":"function","name":"totalDeposited","inputs":[],"outputs":[{"name":"","type":"uint256","internalType":"uint256"}],"stateMutability":"view"},{"type":"function","name":"totalRevenue","inputs":[],"outputs":[{"name":"","type":"uint256","internalType":"uint256"}],"stateMutability":"view"},{"type":"function","name":"totalShares","inputs":[],"outputs":[{"name":"","type":"uint256","internalType":"uint256"}],"stateMutability":"view"},{"type":"function","name":"usdc","inputs":[],"outputs":[{"name":"","type":"address","internalType":"contract IERC20"}],"stateMutability":"view"},{"type":"function","name":"vaultClosed","inputs":[],"outputs":[{"name":"","type":"bool","internalType":"bool"}],"stateMutability":"view"},{"type":"function","name":"withdrawCapital","inputs":[],"outputs":[],"stateMutability":"nonpayable"},{"type":"event","name":"CapitalWithdrawn","inputs":[{"name":"operator","type":"address","indexed":true,"internalType":"address"},{"name":"amount","type":"uint256","indexed":false,"internalType":"uint256"}],"anonymous":false},{"type":"event","name":"Deposited","inputs":[{"name":"lp","type":"address","indexed":true,"internalType":"address"},{"name":"amount","type":"uint256","indexed":false,"internalType":"uint256"},{"name":"sharesIssued","type":"uint256","indexed":false,"internalType":"uint256"}],"anonymous":false},{"type":"event","name":"Redeemed","inputs":[{"name":"lp","type":"address","indexed":true,"internalType":"address"},{"name":"principal","type":"uint256","indexed":false,"internalType":"uint256"},{"name":"yield","type":"uint256","indexed":false,"internalType":"uint256"}],"anonymous":false},{"type":"event","name":"RevenueReceived","inputs":[{"name":"from","type":"address","indexed":true,"internalType":"address"},{"name":"amount","type":"uint256","indexed":false,"internalType":"uint256"},{"name":"source","type":"string","indexed":false,"internalType":"string"}],"anonymous":false},{"type":"event","name":"SourceAuthorized","inputs":[{"name":"source","type":"address","indexed":true,"internalType":"address"},{"name":"authorized","type":"bool","indexed":false,"internalType":"bool"}],"anonymous":false},{"type":"event","name":"SweeperSet","inputs":[{"name":"sweeper","type":"address","indexed":true,"internalType":"address"}],"anonymous":false},{"type":"error","name":"AlreadyRedeemed","inputs":[]},{"type":"error","name":"CapitalAlreadyWithdrawn","inputs":[]},{"type":"error","name":"FundingGoalReached","inputs":[]},{"type":"error","name":"NoShares","inputs":[]},{"type":"error","name":"NotOperator","inputs":[]},{"type":"error","name":"NotRegistry","inputs":[]},{"type":"error","name":"NotSweeper","inputs":[]},{"type":"error","name":"VaultAlreadyClosed","inputs":[]},{"type":"error","name":"VaultNotMatured","inputs":[]},{"type":"error","name":"VaultNotOpen","inputs":[]},{"type":"error","name":"ZeroAmount","inputs":[]}],"bytecode":{"object":"0x6101403461013057601f610f1138819003918201601f19168301916001600160401b038311848410176101345780849260c0946040528339810103126101305761004881610148565b9061005560208201610148565b61006160408301610148565b61006d60608401610148565b9160a060808501519401519460018060a01b031660805260a05260c05260e0526101005261012052604051610db4908161015d82396080518181816103910152818161051c015281816107c901528181610a400152610b8a015260a0518181816107850152610995015260c0518181816101a7015281816106e5015261085b015260e0518161014f0152610100518181816102ba01528181610475015281816108e50152818161092601526109d50152610120518181816104ad015261072b0152f35b5f80fd5b634e487b7160e01b5f52604160045260245ffd5b51906001600160a01b03821682036101305756fe6080806040526004361015610012575f80fd5b5f3560e01c90816313b0ab2814610aeb5750806317727a0014610983578063200d2ed214610908578063204f83f9146108ce57806323d4c2ba1461084057806329b1f2de146108155780633a98ef39146107f85780633e413bee146107b4578063570ca735146107705780635c9920fc1461074e5780637a3a0e84146107145780637b103999146106d05780639189a59e146106a8578063964ebf421461066b5780639f4568ef1461062e578063b6b55f251461045f578063be040fb0146102a8578063bf2d9e0b1461028b578063ce7c2ac214610254578063dc4035c714610232578063f0a13a4c1461017e578063f5ff5c761461013a5763ff50abdc14610119575f80fd5b34610136575f366003190112610136576020600254604051908152f35b5f80fd5b34610136575f366003190112610136576040517f00000000000000000000000000000000000000000000000000000000000000006001600160a01b03168152602090f35b3461013657604036600319011261013657610197610c66565b60243590811515809203610136577f00000000000000000000000000000000000000000000000000000000000000006001600160a01b031633036102235760207f156964222630dfa2c9995108d1518962b131fb3525191a58194ce136ca4278079160018060a01b031692835f526005825260405f2060ff1981541660ff8316179055604051908152a2005b633217675b60e21b5f5260045ffd5b34610136575f36600319011261013657602060ff600654166040519015158152f35b34610136576020366003190112610136576001600160a01b03610275610c66565b165f525f602052602060405f2054604051908152f35b34610136575f366003190112610136576020600354604051908152f35b34610136575f366003190112610136577f0000000000000000000000000000000000000000000000000000000000000000421061045057335f52600760205260ff60405f20541661044157335f525f60205260405f2054801561043257335f52600760205260405f20600160ff198254161790556103546002549161034f61033b8261033660035487610cca565b610cf8565b916103496001548094610d0b565b94610cf8565b610d0b565b9061038c60206103648484610ceb565b60405163a9059cbb60e01b815233600482015260248101949094529291829081906044820190565b03815f7f00000000000000000000000000000000000000000000000000000000000000006001600160a01b03165af18015610427576103fa575b5060405191825260208201527ff3a670cd3af7d64b488926880889d08a8585a138ff455227af6737339a1ec26260403392a2005b61041b9060203d602011610420575b6104138183610c7c565b810190610cb2565b6103c6565b503d610409565b6040513d5f823e3d90fd5b63b317087b60e01b5f5260045ffd5b6306d3830f60e21b5f5260045ffd5b63e9bbe5e760e01b5f5260045ffd5b34610136576020366003190112610136576004357f000000000000000000000000000000000000000000000000000000000000000042101561061f5760ff60085416610610578015610601577f0000000000000000000000000000000000000000000000000000000000000000906104d960025483610ceb565b9081156105f257818111156105ea5750905b6040516323b872dd60e01b8152336004820152306024820152604481018390526020816064815f6001600160a01b037f0000000000000000000000000000000000000000000000000000000000000000165af18015610427576105cd575b50335f525f60205260405f20610560838254610cca565b905561056e82600154610cca565b60015561057d82600254610cca565b80600255146105bb575b6040519080825260208201527f73a19dd210f1a7f902193214c0ee91dd35ee5b4d920cba8d519eca65a7b488ca60403392a2005b600160ff196008541617600855610587565b6105e59060203d602011610420576104138183610c7c565b610549565b9050906104eb565b634fbf92cf60e01b5f5260045ffd5b631f2a200560e01b5f5260045ffd5b63fc5c1c4560e01b5f5260045ffd5b6346a72a3160e11b5f5260045ffd5b34610136576020366003190112610136576001600160a01b0361064f610c66565b165f526007602052602060ff60405f2054166040519015158152f35b34610136576020366003190112610136576001600160a01b0361068c610c66565b165f526005602052602060ff60405f2054166040519015158152f35b34610136575f366003190112610136576004546040516001600160a01b039091168152602090f35b34610136575f366003190112610136576040517f00000000000000000000000000000000000000000000000000000000000000006001600160a01b03168152602090f35b34610136575f3660031901126101365760206040517f00000000000000000000000000000000000000000000000000000000000000008152f35b34610136575f36600319011261013657602060ff600854166040519015158152f35b34610136575f366003190112610136576040517f00000000000000000000000000000000000000000000000000000000000000006001600160a01b03168152602090f35b34610136575f366003190112610136576040517f00000000000000000000000000000000000000000000000000000000000000006001600160a01b03168152602090f35b34610136575f366003190112610136576020600154604051908152f35b34610136576020366003190112610136576020610838610833610c66565b610d29565b604051908152f35b3461013657602036600319011261013657610859610c66565b7f00000000000000000000000000000000000000000000000000000000000000006001600160a01b0316330361022357600480546001600160a01b0319166001600160a01b039290921691821790557f4680981d96e08986909e3a3260d80fe97048cfee5c1ba436ccd8bc43f65eeae15f80a2005b34610136575f3660031901126101365760206040517f00000000000000000000000000000000000000000000000000000000000000008152f35b34610136575f3660031901126101365760a0600254600354600154907f0000000000000000000000000000000000000000000000000000000000000000918242101592835f1461097257505f915b6040519485526020850152604084015260608301526080820152f35b61097d904290610ceb565b91610956565b34610136575f366003190112610136577f00000000000000000000000000000000000000000000000000000000000000006001600160a01b0381169033829003610adc576006549060ff8216610acd577f0000000000000000000000000000000000000000000000000000000000000000421080610ac0575b61061f5760ff1990911660011760065560025460405163a9059cbb60e01b81526001600160a01b03909216600483015260248201819052602082806044810103815f7f00000000000000000000000000000000000000000000000000000000000000006001600160a01b03165af1908115610427577ffd282af50c2a0af33f26b6abcc27c8bae5fc57dc3f7ce9b71612b4cd6db59ca092602092610aa5575b50604051908152a2005b610abb90833d8511610420576104138183610c7c565b610a9b565b5060ff60085416156109fc565b63431ecacf60e11b5f5260045ffd5b631f0853c160e21b5f5260045ffd5b346101365760403660031901126101365760243560043567ffffffffffffffff821161013657366023830112156101365781600401359267ffffffffffffffff8411610136573660248585010111610136576004546001600160a01b031633141580610c4f575b610c40578115610601576323b872dd60e01b8152336004820152306024820152604481018290526020816064815f6001600160a01b037f0000000000000000000000000000000000000000000000000000000000000000165af18015610427577fe10c8f416e9058132cba9d39aa84448aaf3268ee5ea0cdaa28960d61bee779b3938592602492610c23575b50610beb84600354610cca565b600355604051938452604060208501528260408501520160608301375f606084830101526060813394601f80199101168101030190a2005b610c3b9060203d602011610420576104138183610c7c565b610bde565b630982ebb360e01b5f5260045ffd5b50335f52600560205260ff60405f20541615610b52565b600435906001600160a01b038216820361013657565b90601f8019910116810190811067ffffffffffffffff821117610c9e57604052565b634e487b7160e01b5f52604160045260245ffd5b90816020910312610136575180151581036101365790565b91908201809211610cd757565b634e487b7160e01b5f52601160045260245ffd5b91908203918211610cd757565b81810292918115918404141715610cd757565b8115610d15570490565b634e487b7160e01b5f52601260045260245ffd5b6001600160a01b03165f9081526020819052604090205480158015610d74575b610d6f57610d63610d6c9161033660025460035490610cca565b60015490610d0b565b90565b505f90565b5060015415610d4956fea2646970667358221220090778f445a5f9553a7ceb690528c8700e48b558d3584e855d65c8bba922335464736f6c634300081e0033","linkReferences":{}},"methodIdentifiers":{"agent()":"f5ff5c76","authorizedSources(address)":"964ebf42","capitalWithdrawn()":"dc4035c7","deposit(uint256)":"b6b55f25","fundingGoal()":"7a3a0e84","maturity()":"204f83f9","operator()":"570ca735","previewRedeem(address)":"29b1f2de","receiveRevenue(uint256,string)":"13b0ab28","redeem()":"be040fb0","redeemed(address)":"9f4568ef","registry()":"7b103999","setAuthorizedSource(address,bool)":"f0a13a4c","setSweeper(address)":"23d4c2ba","shares(address)":"ce7c2ac2","status()":"200d2ed2","sweeper()":"9189a59e","totalDeposited()":"ff50abdc","totalRevenue()":"bf2d9e0b","totalShares()":"3a98ef39","usdc()":"3e413bee","vaultClosed()":"5c9920fc","withdrawCapital()":"17727a00"},"id":21}