{"abi":[{"type":"constructor","inputs":[{"name":"_usdc","type":"address","internalType":"address"},{"name":"_registry","type":"address","internalType":"address"}],"stateMutability":"nonpayable"},{"type":"function","name":"createPlan","inputs":[{"name":"agentId","type":"uint256","internalType":"uint256"},{"name":"price","type":"uint256","internalType":"uint256"},{"name":"duration","type":"uint256","internalType":"uint256"}],"outputs":[{"name":"planId","type":"uint256","internalType":"uint256"}],"stateMutability":"nonpayable"},{"type":"function","name":"deactivatePlan","inputs":[{"name":"agentId","type":"uint256","internalType":"uint256"},{"name":"planId","type":"uint256","internalType":"uint256"}],"outputs":[],"stateMutability":"nonpayable"},{"type":"function","name":"getPlan","inputs":[{"name":"agentId","type":"uint256","internalType":"uint256"},{"name":"planId","type":"uint256","internalType":"uint256"}],"outputs":[{"name":"","type":"tuple","internalType":"struct SubscriptionPayment.Plan","components":[{"name":"price","type":"uint256","internalType":"uint256"},{"name":"duration","type":"uint256","internalType":"uint256"},{"name":"active","type":"bool","internalType":"bool"}]}],"stateMutability":"view"},{"type":"function","name":"isSubscribed","inputs":[{"name":"agentId","type":"uint256","internalType":"uint256"},{"name":"user","type":"address","internalType":"address"}],"outputs":[{"name":"","type":"bool","internalType":"bool"}],"stateMutability":"view"},{"type":"function","name":"planCount","inputs":[{"name":"","type":"uint256","internalType":"uint256"}],"outputs":[{"name":"","type":"uint256","internalType":"uint256"}],"stateMutability":"view"},{"type":"function","name":"plans","inputs":[{"name":"","type":"uint256","internalType":"uint256"},{"name":"","type":"uint256","internalType":"uint256"}],"outputs":[{"name":"price","type":"uint256","internalType":"uint256"},{"name":"duration","type":"uint256","internalType":"uint256"},{"name":"active","type":"bool","internalType":"bool"}],"stateMutability":"view"},{"type":"function","name":"registry","inputs":[],"outputs":[{"name":"","type":"address","internalType":"contract AgentRegistry"}],"stateMutability":"view"},{"type":"function","name":"subscribe","inputs":[{"name":"agentId","type":"uint256","internalType":"uint256"},{"name":"planId","type":"uint256","internalType":"uint256"}],"outputs":[],"stateMutability":"nonpayable"},{"type":"function","name":"subscriptionExpiry","inputs":[{"name":"agentId","type":"uint256","internalType":"uint256"},{"name":"user","type":"address","internalType":"address"}],"outputs":[{"name":"","type":"uint256","internalType":"uint256"}],"stateMutability":"view"},{"type":"function","name":"subscriptions","inputs":[{"name":"","type":"uint256","internalType":"uint256"},{"name":"","type":"address","internalType":"address"}],"outputs":[{"name":"","type":"uint256","internalType":"uint256"}],"stateMutability":"view"},{"type":"function","name":"usdc","inputs":[],"outputs":[{"name":"","type":"address","internalType":"contract IERC20"}],"stateMutability":"view"},{"type":"event","name":"PayPerUse","inputs":[{"name":"agentId","type":"uint256","indexed":true,"internalType":"uint256"},{"name":"user","type":"address","indexed":true,"internalType":"address"},{"name":"planId","type":"uint256","indexed":false,"internalType":"uint256"},{"name":"amount","type":"uint256","indexed":false,"internalType":"uint256"}],"anonymous":false},{"type":"event","name":"PlanCreated","inputs":[{"name":"agentId","type":"uint256","indexed":true,"internalType":"uint256"},{"name":"planId","type":"uint256","indexed":true,"internalType":"uint256"},{"name":"price","type":"uint256","indexed":false,"internalType":"uint256"},{"name":"duration","type":"uint256","indexed":false,"internalType":"uint256"}],"anonymous":false},{"type":"event","name":"Subscribed","inputs":[{"name":"agentId","type":"uint256","indexed":true,"internalType":"uint256"},{"name":"user","type":"address","indexed":true,"internalType":"address"},{"name":"planId","type":"uint256","indexed":false,"internalType":"uint256"},{"name":"expiry","type":"uint256","indexed":false,"internalType":"uint256"},{"name":"amount","type":"uint256","indexed":false,"internalType":"uint256"}],"anonymous":false},{"type":"error","name":"AgentNotFound","inputs":[]},{"type":"error","name":"NotOperator","inputs":[]},{"type":"error","name":"PlanNotActive","inputs":[]},{"type":"error","name":"ZeroPrice","inputs":[]}],"bytecode":{"object":"0x60c0346100a157601f610a3038819003918201601f19168301916001600160401b038311848410176100a55780849260409485528339810103126100a157610052602061004b836100b9565b92016100b9565b6001600160a01b039182166080521660a05260405161096290816100ce823960805181818161039001526106bb015260a0518181816101c60152818161030701528181610522015261058a0152f35b5f80fd5b634e487b7160e01b5f52604160045260245ffd5b51906001600160a01b03821682036100a15756fe60806040526004361015610011575f80fd5b5f3560e01c8063288503ba14610163578063314a051c146106ea5780633e413bee146106a65780634aec7384146105515780637b1039991461050d5780638437081314610298578063a75b823c1461026e578063b017fc511461019a578063c337916614610163578063e3f44975146101195763f7e1f8c814610092575f80fd5b34610115576100a036610749565b905f604080516100af8161075f565b82815282602082015201525f525f60205260405f20905f52602052606060405f206040516100dc8161075f565b815491828252604060ff600260018401549360208601948552015416920191151582526040519283525160208301525115156040820152f35b5f80fd5b346101155761012736610749565b905f525f60205260405f20905f52602052606060405f2080549060ff600260018301549201541690604051928352602083015215156040820152f35b346101155761017136610723565b905f52600260205260405f209060018060a01b03165f52602052602060405f2054604051908152f35b34610115576101a836610749565b604051632de5aaf760e01b8152600481018390529091905f816024817f00000000000000000000000000000000000000000000000000000000000000006001600160a01b03165afa908115610263575f91610241575b50516001600160a01b03163303610232575f525f60205260405f20905f52602052600260405f200160ff1981541690555f80f35b631f0853c160e21b5f5260045ffd5b61025d91503d805f833e610255818361078f565b81019061081b565b836101fe565b6040513d5f823e3d90fd5b34610115576020366003190112610115576004355f526001602052602060405f2054604051908152f35b34610115576102a636610749565b90805f525f60205260405f20825f5260205260405f206040516102c88161075f565b8154815260ff60026001840154936020840194855201541615801560408301526104fe57604051632de5aaf760e01b8152600481018490525f816024817f00000000000000000000000000000000000000000000000000000000000000006001600160a01b03165afa8015610263576040915f916104e4575b500180516001600160a01b0316156104d5575181516040516323b872dd60e01b81523360048201526001600160a01b039283166024820152604481019190915290602090829060649082905f907f0000000000000000000000000000000000000000000000000000000000000000165af180156102635761049e575b50815115610468575f8381526002602090815260408083203384529091529020544281111561046057915b51820180921161044c57825f52600260205260405f2060018060a01b0333165f526020528160405f20555190604051938452602084015260408301527fd630a461004dfb97afd406eebe1b88d0d60252fa4b3a8402de46377085f1ba7360603393a3005b634e487b7160e01b5f52601160045260245ffd5b5042916103e8565b90505160405192835260208301527f44e4425364a6ae5f6c7f9e9d714f315d64b3d83b89b802dfeb56f4aa489329c460403393a3005b6020813d6020116104cd575b816104b76020938361078f565b81010312610115575180151581146103bd575f80fd5b3d91506104aa565b63e93ba22360e01b5f5260045ffd5b6104f891503d805f833e610255818361078f565b86610341565b63feb7c32360e01b5f5260045ffd5b34610115575f366003190112610115576040517f00000000000000000000000000000000000000000000000000000000000000006001600160a01b03168152602090f35b3461011557606036600319011261011557604051632de5aaf760e01b815260048035908201819052602480359260443592915f908290817f00000000000000000000000000000000000000000000000000000000000000006001600160a01b03165afa908115610263575f9161068c575b50516001600160a01b0316330361023257821561067d57805f52600160205260405f20908154935f19851461044c5760407f8a6ea969ae0f21d98672dbcb40bc94aa208aba25a80f1386ab05cc9775d07ab4916001602097019586809655825161062b8161075f565b8281526002898201918383528581019260018452885f525f8c52865f208a5f528c52865f2091518255516001820155019051151560ff80198354169116179055825191825287820152a3604051908152f35b634dfba02360e01b5f5260045ffd5b6106a091503d805f833e610255818361078f565b846105c2565b34610115575f366003190112610115576040517f00000000000000000000000000000000000000000000000000000000000000006001600160a01b03168152602090f35b34610115576106f836610723565b905f52600260205260405f209060018060a01b03165f52602052602060405f20546040519042108152f35b604090600319011261011557600435906024356001600160a01b03811681036101155790565b6040906003190112610115576004359060243590565b6060810190811067ffffffffffffffff82111761077b57604052565b634e487b7160e01b5f52604160045260245ffd5b90601f8019910116810190811067ffffffffffffffff82111761077b57604052565b51906001600160a01b038216820361011557565b81601f820112156101155780519067ffffffffffffffff821161077b57604051926107fa601f8401601f19166020018561078f565b8284526020838301011161011557815f9260208093018386015e8301015290565b6020818303126101155780519067ffffffffffffffff82116101155701610120818303126101155760405191610120830183811067ffffffffffffffff82111761077b5760405261086b826107b1565b8352610879602083016107b1565b602084015261088a604083016107b1565b6040840152606082015167ffffffffffffffff811161011557816108af9184016107c5565b6060840152608082015167ffffffffffffffff811161011557816108d49184016107c5565b608084015260a08201519067ffffffffffffffff8211610115576108f99183016107c5565b60a083015260c08101519060ff82168203610115576101009160c084015260e081015160e084015201516101008201529056fea2646970667358221220b576fdf1cd65413ccb8a09639d83a30d1b170327431ada9d9f028281c6e8bce564736f6c634300081e0033","linkReferences":{}},"methodIdentifiers":{"createPlan(uint256,uint256,uint256)":"4aec7384","deactivatePlan(uint256,uint256)":"b017fc51","getPlan(uint256,uint256)":"f7e1f8c8","isSubscribed(uint256,address)":"314a051c","planCount(uint256)":"a75b823c","plans(uint256,uint256)":"e3f44975","registry()":"7b103999","subscribe(uint256,uint256)":"84370813","subscriptionExpiry(uint256,address)":"288503ba","subscriptions(uint256,address)":"c3379166","usdc()":"3e413bee"},"id":22}