{"abi":[{"type":"constructor","inputs":[{"name":"_usdc","type":"address","internalType":"address"},{"name":"_registry","type":"address","internalType":"address"}],"stateMutability":"nonpayable"},{"type":"function","name":"createPlan","inputs":[{"name":"agentId","type":"uint256","internalType":"uint256"},{"name":"price","type":"uint256","internalType":"uint256"},{"name":"duration","type":"uint256","internalType":"uint256"}],"outputs":[{"name":"planId","type":"uint256","internalType":"uint256"}],"stateMutability":"nonpayable"},{"type":"function","name":"deactivatePlan","inputs":[{"name":"agentId","type":"uint256","internalType":"uint256"},{"name":"planId","type":"uint256","internalType":"uint256"}],"outputs":[],"stateMutability":"nonpayable"},{"type":"function","name":"getPlan","inputs":[{"name":"agentId","type":"uint256","internalType":"uint256"},{"name":"planId","type":"uint256","internalType":"uint256"}],"outputs":[{"name":"","type":"tuple","internalType":"struct SubscriptionPayment.Plan","components":[{"name":"price","type":"uint256","internalType":"uint256"},{"name":"duration","type":"uint256","internalType":"uint256"},{"name":"active","type":"bool","internalType":"bool"}]}],"stateMutability":"view"},{"type":"function","name":"isSubscribed","inputs":[{"name":"agentId","type":"uint256","internalType":"uint256"},{"name":"user","type":"address","internalType":"address"}],"outputs":[{"name":"","type":"bool","internalType":"bool"}],"stateMutability":"view"},{"type":"function","name":"planCount","inputs":[{"name":"","type":"uint256","internalType":"uint256"}],"outputs":[{"name":"","type":"uint256","internalType":"uint256"}],"stateMutability":"view"},{"type":"function","name":"plans","inputs":[{"name":"","type":"uint256","internalType":"uint256"},{"name":"","type":"uint256","internalType":"uint256"}],"outputs":[{"name":"price","type":"uint256","internalType":"uint256"},{"name":"duration","type":"uint256","internalType":"uint256"},{"name":"active","type":"bool","internalType":"bool"}],"stateMutability":"view"},{"type":"function","name":"registry","inputs":[],"outputs":[{"name":"","type":"address","internalType":"contract AgentRegistry"}],"stateMutability":"view"},{"type":"function","name":"subscribe","inputs":[{"name":"agentId","type":"uint256","internalType":"uint256"},{"name":"planId","type":"uint256","internalType":"uint256"}],"outputs":[],"stateMutability":"nonpayable"},{"type":"function","name":"subscriptionExpiry","inputs":[{"name":"agentId","type":"uint256","internalType":"uint256"},{"name":"user","type":"address","internalType":"address"}],"outputs":[{"name":"","type":"uint256","internalType":"uint256"}],"stateMutability":"view"},{"type":"function","name":"subscriptions","inputs":[{"name":"","type":"uint256","internalType":"uint256"},{"name":"","type":"address","internalType":"address"}],"outputs":[{"name":"","type":"uint256","internalType":"uint256"}],"stateMutability":"view"},{"type":"function","name":"usdc","inputs":[],"outputs":[{"name":"","type":"address","internalType":"contract IERC20"}],"stateMutability":"view"},{"type":"event","name":"PayPerUse","inputs":[{"name":"agentId","type":"uint256","indexed":true,"internalType":"uint256"},{"name":"user","type":"address","indexed":true,"internalType":"address"},{"name":"planId","type":"uint256","indexed":false,"internalType":"uint256"},{"name":"amount","type":"uint256","indexed":false,"internalType":"uint256"}],"anonymous":false},{"type":"event","name":"PlanCreated","inputs":[{"name":"agentId","type":"uint256","indexed":true,"internalType":"uint256"},{"name":"planId","type":"uint256","indexed":true,"internalType":"uint256"},{"name":"price","type":"uint256","indexed":false,"internalType":"uint256"},{"name":"duration","type":"uint256","indexed":false,"internalType":"uint256"}],"anonymous":false},{"type":"event","name":"Subscribed","inputs":[{"name":"agentId","type":"uint256","indexed":true,"internalType":"uint256"},{"name":"user","type":"address","indexed":true,"internalType":"address"},{"name":"planId","type":"uint256","indexed":false,"internalType":"uint256"},{"name":"expiry","type":"uint256","indexed":false,"internalType":"uint256"},{"name":"amount","type":"uint256","indexed":false,"internalType":"uint256"}],"anonymous":false},{"type":"error","name":"AgentNotFound","inputs":[]},{"type":"error","name":"NotOperator","inputs":[]},{"type":"error","name":"PlanNotActive","inputs":[]},{"type":"error","name":"ZeroPrice","inputs":[]}],"bytecode":{"object":"0x60c0346100a157601f610b5638819003918201601f19168301916001600160401b038311848410176100a55780849260409485528339810103126100a157610052602061004b836100b9565b92016100b9565b6001600160a01b039182166080521660a052604051610a8890816100ce823960805181818161037801526107b5015260a0518181816101c601528181610307015281816105f901526106610152f35b5f80fd5b634e487b7160e01b5f52604160045260245ffd5b51906001600160a01b03821682036100a15756fe60806040526004361015610011575f80fd5b5f5f3560e01c8063288503ba1461081d578063314a051c146107e45780633e413bee146107a05780634aec7384146106285780637b103999146105e45780638437081314610297578063a75b823c1461026d578063b017fc5114610199578063c337916614610161578063e3f44975146101175763f7e1f8c814610093575f80fd5b346101145760406060916100a63661087a565b90828480516100b481610890565b8281528260208201520152825281602052828220908252602052206040516100db81610890565b815491828252604060ff600260018401549360208601948552015416920191151582526040519283525160208301525115156040820152f35b80fd5b503461011457604060609161012b3661087a565b908252816020528282209082526020522080549060ff600260018301549201541690604051928352602083015215156040820152f35b503461011457604061017236610854565b929081526002602052209060018060a01b03165f52602052602060405f2054604051908152f35b5034610114576101a83661087a565b604051632de5aaf760e01b81526004810183905290919083816024817f00000000000000000000000000000000000000000000000000000000000000006001600160a01b03165afa908115610262578491610240575b50516001600160a01b0316330361023157825281602052604082209082526020526002604082200160ff19815416905580f35b631f0853c160e21b8352600483fd5b61025c91503d8086833e61025481836108c0565b81019061094c565b5f6101fe565b6040513d86823e3d90fd5b50346101145760203660031901126101145760406020916004358152600183522054604051908152f35b503461055e576102a63661087a565b90805f525f60205260405f20825f5260205260405f206040516102c881610890565b8154815260ff60026001840154936020840194855201541615801560408301526105d557604051632de5aaf760e01b8152600481018490525f816024817f00000000000000000000000000000000000000000000000000000000000000006001600160a01b03165afa8015610553576040915f916105bb575b500180516001600160a01b0316156105ac5781516040516323b872dd60e01b815233600482015230602482015260448101919091527f00000000000000000000000000000000000000000000000000000000000000006001600160a01b0316906020816064815f865af180156105535761058f575b508151835160405163095ea7b360e01b81526001600160a01b039092166004830152602482015290602090829060449082905f905af1801561055357610562575b505181516001600160a01b0390911690813b1561055e575f91608483926040519485938492630276156560e31b8452600484015260406024840152600c60448401526b39bab139b1b934b83a34b7b760a11b60648401525af180156105535761053e575b5081511561050757828552600260209081526040808720335f9081529252902054428111156104ff57915b5182018092116104eb5782855260026020526040852060018060a01b0333165f526020528160405f20555190604051938452602084015260408301527fd630a461004dfb97afd406eebe1b88d0d60252fa4b3a8402de46377085f1ba7360603393a380f35b634e487b7160e01b85526011600452602485fd5b504291610486565b90505160405192835260208301527f44e4425364a6ae5f6c7f9e9d714f315d64b3d83b89b802dfeb56f4aa489329c460403393a380f35b61054b9195505f906108c0565b5f935f61045b565b6040513d5f823e3d90fd5b5f80fd5b6105839060203d602011610588575b61057b81836108c0565b810190610a3a565b6103f7565b503d610571565b6105a79060203d6020116105885761057b81836108c0565b6103b6565b63e93ba22360e01b5f5260045ffd5b6105cf91503d805f833e61025481836108c0565b5f610341565b63feb7c32360e01b5f5260045ffd5b3461055e575f36600319011261055e576040517f00000000000000000000000000000000000000000000000000000000000000006001600160a01b03168152602090f35b3461055e57606036600319011261055e57604051632de5aaf760e01b815260048035908201819052602480359260443592915f908290817f00000000000000000000000000000000000000000000000000000000000000006001600160a01b03165afa908115610553575f91610786575b50516001600160a01b0316330361077757821561076857805f52600160205260405f20908154935f1985146107545760407f8a6ea969ae0f21d98672dbcb40bc94aa208aba25a80f1386ab05cc9775d07ab4916001602097019586809655825161070281610890565b8281526002898201918383528581019260018452885f525f8c52865f208a5f528c52865f2091518255516001820155019051151560ff80198354169116179055825191825287820152a3604051908152f35b634e487b7160e01b5f52601160045260245ffd5b634dfba02360e01b5f5260045ffd5b631f0853c160e21b5f5260045ffd5b61079a91503d805f833e61025481836108c0565b84610699565b3461055e575f36600319011261055e576040517f00000000000000000000000000000000000000000000000000000000000000006001600160a01b03168152602090f35b3461055e576107f236610854565b905f52600260205260405f209060018060a01b03165f52602052602060405f20546040519042108152f35b3461055e5761082b36610854565b905f52600260205260405f209060018060a01b03165f52602052602060405f2054604051908152f35b604090600319011261055e57600435906024356001600160a01b038116810361055e5790565b604090600319011261055e576004359060243590565b6060810190811067ffffffffffffffff8211176108ac57604052565b634e487b7160e01b5f52604160045260245ffd5b90601f8019910116810190811067ffffffffffffffff8211176108ac57604052565b51906001600160a01b038216820361055e57565b81601f8201121561055e5780519067ffffffffffffffff82116108ac576040519261092b601f8401601f1916602001856108c0565b8284526020838301011161055e57815f9260208093018386015e8301015290565b60208183031261055e5780519067ffffffffffffffff821161055e57019060e08282031261055e576040519160e0830183811067ffffffffffffffff8211176108ac5760405261099b816108e2565b83526109a9602082016108e2565b60208401526109ba604082016108e2565b6040840152606081015167ffffffffffffffff811161055e57826109df9183016108f6565b6060840152608081015167ffffffffffffffff811161055e5782610a049183016108f6565b608084015260a081015167ffffffffffffffff811161055e5760c092610a2b9183016108f6565b60a0840152015160c082015290565b9081602091031261055e5751801515810361055e579056fea2646970667358221220df489646158179557a7d707375d18020394b8e43741868eb78c5e58880e71b6864736f6c634300081e0033","linkReferences":{}},"methodIdentifiers":{"createPlan(uint256,uint256,uint256)":"4aec7384","deactivatePlan(uint256,uint256)":"b017fc51","getPlan(uint256,uint256)":"f7e1f8c8","isSubscribed(uint256,address)":"314a051c","planCount(uint256)":"a75b823c","plans(uint256,uint256)":"e3f44975","registry()":"7b103999","subscribe(uint256,uint256)":"84370813","subscriptionExpiry(uint256,address)":"288503ba","subscriptions(uint256,address)":"c3379166","usdc()":"3e413bee"},"id":22}